:100000000C9417010C9434010C9434010C943401B9
:100010000C9434010C9434010C9434010C9434018C
:100020000C9434010C9434010C9468080C94A208CC
:100030000C9434010C9434010C9434010C9434016C
:100040000C9434010C9434010C9434010C9434015C
:100050000C9434010C9434010C9434010C9434014C
:100060000C9434010C9434010C9434010C9434013C
:100070000C9434010C9434010C9434010C9434012C
:100080000C9434010C9434010C9434010C9434011C
:100090000C9434010C9434010C9434010C9434010C
:1000A0000C9434010C9434010C94340110080808A9
:1000B0000008F807F007E807E007D807D007C807E7
:1000C000C007B807B007A807A007980790078807D8
:1000D00080077807700768076007580750074807C8
:1000E00040073807300728072007180710070807B8
:1000F0000007F806F006E806E006D806D006C806AF
:10010000C006B806B006A806A0069806900688069F
:10011000800678067006680660065806500648068F
:100120004006380630062806200618061006084A3B
:10013000D73B3BCE016E84BCBFFDC12F3D6C7431FB
:100140009ABD56833DDA3D00C77F11BED9E4BB4C52
:100150003E916BAAAABE000000803F05A84CCDB21C
:10016000D44EB93836A9020C50B9918688083CA6FD
:10017000AAAA2ABE000000803F0000010000110270
:100180001200020000CE014300030000CA01040176
:10019000030904B6011202030904AE0106030309B0
:1001A00004A40108080334003100300000000603F5
:1001B0004D003200000012034A002E0020004600CD
:1001C000690065006E00650000000403090409026F
:1001D0004300020100C032090400000102020100D4
:1001E0000524001001052401010104240206052450
:1001F0000600010705820310004009040100020AFD
:1002000000000007050302400000070584024000CB
:10021000001201000202000010C0167A0400010161
:100220000203010001C11201803601813600112450
:100230001FBECFEFDAE0DEBFCDBF11E0A0E0B1E03E
:10024000E2EBF7E202C005900D92AA30B107D9F7B0
:1002500021E0AAE0B1E001C01D92A934B207E1F7A4
:100260000E94F30F0C94D7130C940000909342015A
:100270008093410108958091410190914201089538
:100280009093480180934701089580914701909190
:10029000480108959093440180934301089580910B
:1002A0004301909144010895909346018093450144
:1002B00008958091450190914601089520E030E035
:1002C0008091BC0087FD06C02F5F3F4F293E83E031
:1002D0003807B1F781E0283E334009F480E0089503
:1002E0008093BB0084E88093BC000E945E01882359
:1002F00019F08091B900887F0895CF93C82F84EAC0
:100300008093BC000E945E01882361F08C2F880FCF
:100310000E947001803229F484E98093BC0080E05F
:1003200001C081E0CF9108950E94F20A88E50E9401
:100330007D01811102C080E0089580E30E94700178
:100340008823C9F381E00E9470018823A1F384E926
:100350008093BC008FE39CE90197F1F700C0000097
:1003600088E50E947D01882331F380E00E947001BE
:10037000882309F380E00E9470018823E1F280E085
:100380000E9470018823B9F280E00E9470018823E6
:1003900091F280E00E947001882369F280E00E945F
:1003A0007001882341F280E00E947001882319F2D5
:1003B00080E90E947001882309F4BDCF84E980930D
:1003C000BC008FE39CE90197F1F700C0000088E5CD
:1003D0000E947D01882309F4AECF87E00E9470015E
:1003E000882309F4A8CF80E00E947001882309F4D3
:1003F000A2CF81E40E947001882309F49CCF84E994
:100400008093BC008FE39CE90197F1F700C00000E6
:1004100088E50E947D01882309F48DCF8AE10E943E
:100420007001882309F487CF80E40E94700188233B
:1004300009F481CF80E00E947001882309F47BCF0A
:1004400084E98093BC008FE39CE90197F1F700C039
:10045000000088E50E947D01882309F46CCF83E3C6
:100460000E947001882309F466CF83E00E94700126
:10047000882309F460CF84E98093BC008FE39CE972
:100480000197F1F700C0000088E50E947D018823F4
:1004900009F451CF80E30E947001882309F44BCF07
:1004A00088E00E947001882309F445CF84E9809395
:1004B000BC008FE39CE90197F1F700C0000081E0E8
:1004C0000895CF93C82F84EA8093BC000E945E01F8
:1004D000882369F08C2F880F8F5F0E947001883409
:1004E00029F484E98093BC0080E001C081E0CF91D1
:1004F0000895EF92FF920F931F93CF93DF93CDB7A1
:10050000DEB760970FB6F894DEBF0FBECDBF7C019B
:100510008E010F5F1F4F80E1F80111928A95E9F774
:1005200088E50E947D01811102C080E05EC086E303
:100530000E9470018823C9F384E98093BC00F5E828
:10054000FA95F1F7000088E50E946102882369F3BB
:10055000F8019E01205F3F4F94EC9093BC00809186
:10056000BC0087FFFCCF8091BB008193E217F307AB
:10057000A1F784E88093BC008091BC0087FFFCCF8A
:100580008091BB00888B84E98093BC00DE011496C7
:1005900087016C91762F7073AD0142505109FA01B9
:1005A000808190E0F0E17F9F800D911D1124F80182
:1005B00091838083762F707C4F5F5F4FFA0180813B
:1005C00090E0F4E07F9F800D911D1124F80193834A
:1005D00082836F70862F90E09583848313960A5FE1
:1005E0001F4FA217B307A9F681E060960FB6F894E3
:1005F000DEBF0FBECDBFDF91CF911F910F91FF9056
:10060000EF90089584E98093BC000895CF93DF9321
:1006100000D000D0CDB7DEB79A01AB0190930B01AB
:1006200080930A019093890080938800BC0180E048
:1006300090E029833A834B835C830E947411298163
:100640003A814B815C810E946B120E944811709329
:100650008B0060938A00E1E8F0E080818061808314
:10066000808188608083A0E8B0E08C9182608C9368
:100670008C9181608C938C9180628C938C918F7E15
:100680008C9380818B7F8083808182608083808156
:100690008E7F8083269A0F900F900F900F90DF919E
:1006A000CF910895CF93DF9300D000D0CDB7DEB7C0
:1006B0009B01AC0160910A0170910B0180E090E018
:1006C00029833A834B835C830E94741129813A8188
:1006D0004B815C810E946B120E94481170938B00C9
:1006E00060938A000F900F900F900F90DF91CF9141
:1006F0000895E1E8F0E080818B7F808380818D7FA9
:10070000808380818E7F80832698089587BD85B5FC
:10071000886085BD84B5826084BD84B5816084BDF8
:1007200084B58F7784BD84B58F7B84BD84B58F7D80
:1007300084BD84B58F7E84BD85B5846085BD85B557
:100740008D7F85BD85B5816085BD089585B58B7F1D
:1007500085BD85B58D7F85BD85B58E7F85BD0895A9
:10076000882339F080916E00816080936E007894C8
:10077000089580916E008E7F80936E000895CF93D0
:10078000DF9300D000D0CDB7DEB79A01AB019093D4
:100790000D0180930C019093970080939600BC010B
:1007A00080E090E029833A834B835C830E9474113C
:1007B00029813A814B815C810E946B120E94481111
:1007C0007093990060939800E1E9F0E08081806186
:1007D0008083808188608083A0E9B0E08C91826012
:1007E0008C938C918E7F8C938C9180688C938C9160
:1007F0008F7B8C9380818B7F8083808182608083DC
:1008000080818E7F80833E9A0F900F900F900F9083
:10081000DF91CF910895CF93DF9300D000D0CDB773
:10082000DEB79B01AC0160910C0170910D0180E07D
:1008300090E029833A834B835C830E947411298161
:100840003A814B815C810E946B120E944811709327
:100850009900609398000F900F900F900F90DF9188
:10086000CF910895E1E9F0E080818B7F80838081E2
:100870008D7F808380818E7F80833E980895089548
:100880000895CF92DF92EF92FF9269017A01BA0147
:10089000A90180E091E00E940603B701A60180E073
:1008A00091E00E94BF030E94590160E070E0CB011B
:1008B0000E94CE126B017C0182E090E00E94360122
:1008C00020E030E0A901C701B6010E9419100E9482
:1008D0006B134E979CF460E070E0CB010E946B13A9
:1008E0004E9764F40E9479030E94320480E090E005
:1008F000FF90EF90DF90CF900C943601FF90EF9037
:10090000DF90CF900895CF93DF93EA01AB01BC0154
:1009100080E094E00E940603CD2B11F4289A01C0D8
:100920002898DF91CF9108950C947903CF93DF93AA
:10093000EA01AB01BC0180E094E00E94BF03CD2B33
:1009400011F4289A01C02898DF91CF9108950C9452
:100950003204CF93DF93ACE7B0E08C918F778C9328
:100960008C9180648C93EAE7F0E0808184608083DE
:10097000808182608083808181608083CEE7D0E047
:10098000888181608883808180628083CBE7D0E02A
:1009900088818F7D88838C918B7F8C938C918D7FC8
:1009A0008C938C918E7F8C938081806880838081F2
:1009B00080648083DF91CF910895892B39F08091F5
:1009C0007A00886080937A007894089580917A0004
:1009D000877F80937A000895EAE7F0E090819F771F
:1009E0009083ACE7B0E09C918770987F892B8C93C3
:1009F000808180688083089580917C00877008954D
:100A00008091E80080FFFCCF089581E08093D700BB
:100A100080EA8093D80082E189BD09B400FEFDCF51
:100A200080E98093D8001092E0001092110110929A
:100A30000E018CE08093E20078940895809111017A
:100A400008959FB7F89480911101882339F083E0CD
:100A50008093E9008091E80085FD03C09FBF8FEF80
:100A600008958091F1002091E80025FD03C02BE658
:100A70002093E8009FBF08959FB7F89480911101DB
:100A8000882331F083E08093E9008091F20001C077
:100A900080E09FBF089580911101882371F08FB786
:100AA000F89493E09093E9002BE69091E80095FF8D
:100AB00003C02093E800F9CF8FBF089590911101F2
:100AC000992371F09FB7F89424E02093E9002091D6
:100AD0000F01222349F02091E80025FD03C09FBFAC
:100AE0008FEF089510920F012091E400275E34E00B
:100AF0004091E80045FD12C09FBF9091E400921321
:100B000004C081E080930F01EBCF909111019923F4
:100B100039F39FB7F8943093E900EACF8093F1005E
:100B20008091E80085FD03C08AE38093E80085E0BA
:100B3000809310019FBF80E0089590911101992347
:100B4000D1F09FB7F89424E02093E9002091E800C9
:100B500025FD02C09FBF0FC08093F1008091E80087
:100B600085FD03C08AE38093E80085E0809310014F
:100B70009FBF80E008958FEF0895EF92FF921F933B
:100B8000CF93DF937C01CB0120911101222371F0DF
:100B9000AFB7F89424E02093E90020910F012223BD
:100BA00049F02091E80025FD03C0AFBF8FEF42C29E
:100BB00010920F01B4E0C0E4DAE315E0009709F405
:100BC00037C22091E400275E3091E80035FD12C065
:100BD000AFBF3091E400321304C081E080930F0175
:100BE000E5CF30911101332309F3AFB7F894B093F7
:100BF000E900EACF2091F2004C2F421B242F30E075
:100C00008217930708F4482F841B910950E0413460
:100C1000510508F0FDC14A5A5F4FFA010C94651363
:100C2000F70120812093F10097012F5F3F4F790159
:100C3000F70120812093F10097012F5F3F4F790149
:100C4000F70120812093F10097012F5F3F4F790139
:100C5000F70120812093F10097012F5F3F4F790129
:100C6000F70120812093F10097012F5F3F4F790119
:100C7000F70120812093F10097012F5F3F4F790109
:100C8000F70120812093F10097012F5F3F4F7901F9
:100C9000F70120812093F10097012F5F3F4F7901E9
:100CA000F70120812093F10097012F5F3F4F7901D9
:100CB000F70120812093F10097012F5F3F4F7901C9
:100CC000F70120812093F10097012F5F3F4F7901B9
:100CD000F70120812093F10097012F5F3F4F7901A9
:100CE000F70120812093F10097012F5F3F4F790199
:100CF000F70120812093F10097012F5F3F4F790189
:100D0000F70120812093F10097012F5F3F4F790178
:100D1000F70120812093F10097012F5F3F4F790168
:100D2000F70120812093F10097012F5F3F4F790158
:100D3000F70120812093F10097012F5F3F4F790148
:100D4000F70120812093F10097012F5F3F4F790138
:100D5000F70120812093F10097012F5F3F4F790128
:100D6000F70120812093F10097012F5F3F4F790118
:100D7000F70120812093F10097012F5F3F4F790108
:100D8000F70120812093F10097012F5F3F4F7901F8
:100D9000F70120812093F10097012F5F3F4F7901E8
:100DA000F70120812093F10097012F5F3F4F7901D8
:100DB000F70120812093F10097012F5F3F4F7901C8
:100DC000F70120812093F10097012F5F3F4F7901B8
:100DD000F70120812093F10097012F5F3F4F7901A8
:100DE000F70120812093F10097012F5F3F4F790198
:100DF000F70120812093F10097012F5F3F4F790188
:100E0000F70120812093F10097012F5F3F4F790177
:100E1000F70120812093F10097012F5F3F4F790167
:100E2000F70120812093F10097012F5F3F4F790157
:100E3000F70120812093F10097012F5F3F4F790147
:100E4000F70120812093F10097012F5F3F4F790137
:100E5000F70120812093F10097012F5F3F4F790127
:100E6000F70120812093F10097012F5F3F4F790117
:100E7000F70120812093F10097012F5F3F4F790107
:100E8000F70120812093F10097012F5F3F4F7901F7
:100E9000F70120812093F10097012F5F3F4F7901E7
:100EA000F70120812093F10097012F5F3F4F7901D7
:100EB000F70120812093F10097012F5F3F4F7901C7
:100EC000F70120812093F10097012F5F3F4F7901B7
:100ED000F70120812093F10097012F5F3F4F7901A7
:100EE000F70120812093F10097012F5F3F4F790197
:100EF000F70120812093F10097012F5F3F4F790187
:100F0000F70120812093F10097012F5F3F4F790176
:100F1000F70120812093F10097012F5F3F4F790166
:100F2000F70120812093F10097012F5F3F4F790156
:100F3000F70120812093F10097012F5F3F4F790146
:100F4000F70120812093F10097012F5F3F4F790136
:100F5000F70120812093F10097012F5F3F4F790126
:100F6000F70120812093F10097012F5F3F4F790116
:100F7000F70120812093F10097012F5F3F4F790106
:100F8000F70120812093F10097012F5F3F4F7901F6
:100F9000F70120812093F10097012F5F3F4F7901E6
:100FA000F70120812093F10097012F5F3F4F7901D6
:100FB000F70120812093F10097012F5F3F4F7901C6
:100FC000F70120812093F10097012F5F3F4F7901B6
:100FD000F70120812093F10097012F5F3F4F7901A6
:100FE000F70120812093F10097012F5F3F4F790196
:100FF000F70120812093F10097012F5F3F4F790186
:10100000F70120812093F10097012F5F3F4F790175
:10101000F70120812093F10097012F5F3F4F790165
:101020002091E80025FFD093E80010931001C6CD71
:10103000AFBF80E0DF91CF911F91FF90EF900895B7
:101040008FB7F89490911001992341F094E0909318
:10105000E9009AE39093E800109210018FBF089581
:1010600080910701089580910801089580910901F8
:10107000089580910E0108959FB7F8942091110171
:10108000222339F022E02093E9003091E80035FD79
:1010900003C09FBF8FEF089531EA3093F10030E233
:1010A0003093F1001092F1001092F1001092F100D3
:1010B0001092F1002093F1001092F1008093F10062
:1010C0001092F1008AE38093E8009FBF80E00895CA
:1010D0001F920F920FB60F9211248F939F938091BE
:1010E000E1001092E10083FF11C01092E90091E04D
:1010F0009093EB001092EC0092E19093ED0098E059
:101100009093F0001092110110920E0182FF13C013
:1011100080911101882379F080911001882359F082
:10112000815080931001811106C084E08093E90012
:101130008AE38093E8009F918F910F900FBE0F90EC
:101140001F9018951F920F920FB60F921124EF92D5
:10115000FF920F931F932F933F934F935F936F9340
:101160007F938F939F93AF93BF93EF93FF93CF930F
:10117000DF931F92CDB7DEB71092E9008091E800AF
:1011800083FF14C19091F1008091F1003091F10042
:101190002091F100E32EF12CF22A0091F100209130
:1011A000F10010E0122B2091F1006091F10032EF7C
:1011B0003093E800863009F046C036E08AE791E0D7
:1011C000FC01459154914E155F0539F4FC013296AE
:1011D000459154914017510721F00796315081F7FE
:1011E000E5C0FC01349645915491FC0136968491FA
:1011F00030E0362B2F3F310519F010F02FEF30E0A3
:10120000281708F4822F3EEF9091E800292F2570CF
:10121000D9F392FDCEC0982F813108F090E1FA0108
:10122000292F222331F064916093F10021503196EF
:10123000F8CF490F511D891B3093E8008111E4CF8D
:10124000903111F3B6C0853051F48EEF8093E800F1
:101250000E9400058E2D80688093E300AAC089302B
:1012600059F5911180C0E092110110920E01109277
:1012700010018EEF8093E80041E083E292E040931A
:10128000E9009C012F5F3F4FFC0154915093EB000C
:10129000552359F0F90124912093EC009C012D5F16
:1012A0003F4F319684918093ED004F5F453011F0B0
:1012B000C901E5CF8EE175C0883051F4903809F04E
:1012C00052C00E940005809111018093F10047C037
:1012D000813279F4913A09F046C00E940005E3E0BA
:1012E000F1E081918093F10081E0EA30F807C9F7DD
:1012F00036C0803299F49132B1F58091E80082FFD6
:10130000FCCFE3E0F1E08091F100819381E0EA30ED
:10131000F807C9F78BEF8093E80021C0823241F4CF
:10132000913209F043C0E0920E010E94000517C0FF
:10133000811119C099830E9400059981923851F456
:101340000093E9008091EB0085FB882780F91092DB
:10135000E90001C080E08093F1001092F1008EEF6F
:101360008093E80026C0282F2D7F2130F9F4923099
:10137000E9F4EF28D9F40F779FEF900F9430B0F491
:101380009EEF9093E8000093E900833079F089E1C3
:101390008093EB0081E090E0002E01C0880F0A945A
:1013A000EAF78093EA001092EA0003C081E280939A
:1013B000EB000F90DF91CF91FF91EF91BF91AF9133
:1013C0009F918F917F916F915F914F913F912F915D
:1013D0001F910F91FF90EF900F900FBE0F901F90F5
:1013E00018951F93CF93DF93EC01FE011491112305
:1013F00051F01A3019F48DE00E945E05812F0E9491
:101400005E052196F2CFDF91CF911F9108958A302A
:1014100010F490E301C097E3890F0C945E05CF931D
:10142000C82F82958F700E94070A8C2F8F70CF91E2
:101430000C94070ACF93C82F892F0E940F0A8C2F74
:10144000CF910C940F0A0C940F0AEF92FF920F9316
:101450001F93CF93DF93CDB7DEB727970FB6F894DE
:10146000DEBF0FBECDBF8E010F5F1F4F27E0F8011B
:1014700011922A95E9F74AE0B8010E9471137E01A2
:10148000F8E0EF0EF11CF80181918F0181110E94AB
:101490005E050E151F05B9F727960FB6F894DEBF47
:1014A0000FBECDBFDF91CF911F910F91FF90EF90B5
:1014B0000895EF92FF920F931F93CF93DF9300D085
:1014C00000D000D0CDB7DEB78E010F5F1F4F26E0F2
:1014D000F80111922A95E9F74AE0B8010E94AD138C
:1014E0007E01F6E0EF0EF11CF80181918F01811170
:1014F0000E945E050E151F05B9F726960FB6F894E3
:10150000DEBF0FBECDBFDF91CF911F910F91FF9036
:10151000EF900895EF92FF920F931F93CF93DF9375
:10152000CDB7DEB72B970FB6F894DEBF0FBECDBF99
:101530008E010F5F1F4F2BE0F80111922A95E9F7FA
:101540002AE0A8010E947C137E01FCE0EF0EF11C52
:10155000F80181918F0181110E945E050E151F0512
:10156000B9F72B960FB6F894DEBF0FBECDBFDF9153
:10157000CF911F910F91FF90EF900895EF92FF92FE
:101580000F931F93CF93DF93CDB7DEB72B970FB693
:10159000F894DEBF0FBECDBF8E010F5F1F4F2BE053
:1015A000F80111922A95E9F72AE0A8010E948B130D
:1015B0007E01FBE0EF0EF11CF80181918F0181119A
:1015C0000E945E050E151F05B9F72B960FB6F8940D
:1015D000DEBF0FBECDBFDF91CF911F910F91FF9066
:1015E000EF900895589A599A5A9A8CE08093B800CF
:1015F000E9E6F0E080818062808380818F7E808355
:10160000EA9A7894089584E88093BC008091BC00A5
:1016100087FFFCCF8091BB00089584E98093BC00D4
:10162000089520E030E08091BC0087FD06C02F5F68
:101630003F4F293E83E03807B1F781E0283E334031
:1016400009F480E008958093BB0084E88093BC0097
:101650000E94110B882321F08091B900887F0895A2
:1016600080E008951F93CF93DF931F92CDB7DEB72D
:10167000182F84EA8093BC0069830E94110B698152
:10168000811104C094E99093BC0014C0812F880F8D
:10169000662331F08F5F0E94230B883451F404C01D
:1016A0000E94230B803229F484E98093BC0080E0FF
:1016B00001C081E00F90DF91CF911F910895CF93EA
:1016C000DF93C82FD62F60E00E94320B882391F061
:1016D0008D2F0E94230B882369F084E98093BC003E
:1016E00061E08C2F0E94320B882321F0DF91CF9193
:1016F0000C94030B80E0DF91CF910895CF93DF939B
:10170000D62FC42F60E00E94320B811102C080E00E
:101710000EC08D2F0E94230B8823C9F38C2F0E94AB
:10172000230B8823A1F384E98093BC0081E0DF913F
:10173000CF910895CF93DF9300D01F92CDB7DEB73E
:101740004B836A8389830E94F20A94EA9093BC00D7
:1017500089816A814B819091BC0097FFFCCF90E515
:101760009093BB0094E89093BC009091BC0097FFCD
:10177000FCCF9091B900987F903229F484E980934E
:10178000BC0080E029C091E09093BB0094E8909366
:10179000BC009091BC0097FFFCCF8093BB0084E815
:1017A0008093BC008091BC0087FFFCCF6093BB009E
:1017B00084E88093BC008091BC0087FFFCCF4093FD
:1017C000BB0084E88093BC008091BC0087FFFCCF05
:1017D00084E98093BC0081E00F900F900F90DF911F
:1017E000CF91089524EA2093BC002091BC0027FFEC
:1017F000FCCF21E52093BB0024E82093BC0020917E
:10180000BC0027FFFCCF2091B900287F2834A9F025
:1018100024EC2093BC002091BC0027FFFCCF20913A
:10182000BB0026130AC0FC0120E030E0772767FDEB
:1018300070956150710944EC0EC084E98093BC003E
:1018400080E008955091BC0057FFFCCF5091BB0041
:1018500051932F5F3F4F261737071CF44093BC006E
:10186000F1CF44E84093BC004091BC0047FFFCCF5F
:101870004091BB00FC01E20FF31F408384E9809399
:10188000BC0081E00895F89494EA9093BC00909194
:10189000BC0097FFFCCF90E59093BB0094E8909339
:1018A000BC009091BC0097FFFCCF9091B900987F4D
:1018B000903231F484E98093BC00789480E00895FC
:1018C00093E09093BB0094E89093BC009091BC008F
:1018D00097FFFCCF8093BB0084E88093BC0080918D
:1018E000BC0087FFFCCFFB01552747FD509524E83E
:1018F000CF01861B970B8417950754F48191809331
:10190000BB002093BC008091BC0087FFFCCFF0CFD0
:1019100084E98093BC00789481E008950E9494014A
:1019200081E08093320108952F923F924F925F920F
:101930006F927F928F929F92AF92BF92CF92DF92DF
:10194000EF92FF920F931F93CF93DF93CDB7DEB744
:10195000C856D1090FB6F894DEBF0FBECDBF3C010B
:10196000E2E1F1E0DC0180E090E021E030E04D9147
:101970005C9111974F3F534059F416964D915C91ED
:1019800017974F3F534021F431832083019602C0C3
:10199000118210821696329641E0EA31F40739F747
:1019A000892B09F0D7C21092400110923F01CE015D
:1019B000019667969FAF8EAF67972B967FAE6EAE00
:1019C0002B97A2E1B1E06396BFAFAEAF6397812CD6
:1019D000912C6E961FAE6E976F961FAE6F97A09666
:1019E0001FAEA097A1961FAEA1972F967FAE6EAEA9
:1019F0002F97A2E1B1E06D96BFAFAEAF6D976B963A
:101A00001FAE1EAE6B9700E010E02B96EEADFFAD63
:101A10002B97E619F709A596FFAFEEAFA597A2960B
:101A20000FAFA297A3961FAFA3978016910609F454
:101A300095C06396EEADFFAD639780819181892B50
:101A400009F08CC06D96AEADBFAD6D978D919C9138
:101A5000892B09F083C02B96EEADFFAD2B976081EB
:101A600071812F96AEADBFAD2F978D919C91681B64
:101A7000790B80E090E00E9474111B012C012B96E1
:101A8000EEADFFAD2B97668177812F96EEADFFAD62
:101A90002F97A5962EAD3FADA597E20FF31F80813E
:101AA0009181681B790B80E090E00E9474116B01BA
:101AB0007C01A2019101C201B1010E946B121B01C4
:101AC0002C01A7019601C701B6010E946B129B0170
:101AD000AC01C201B1010E9419100E94D8126B0121
:101AE0007C016E962FAD6E976F963FAD6F97A09667
:101AF0004FADA097A1965FADA1970E9460121816F6
:101B00003CF0A296AFAEA297A396BFAEA39710C02B
:101B100027969FAE8EAE27976E96CFAE6E976F9636
:101B2000DFAE6F97A096EFAEA097A196FFAEA197FC
:101B3000C601D7016796EEADFFAD67976B964EADC8
:101B40005FAD6B97E40FF51F80839183A283B3830E
:101B5000A296AFACA297A396BFACA3970F5F1F4FFF
:101B60006D968EAD9FAD6D9702966D969FAF8EAFC1
:101B70006D976B96AEADBFAD6B9714966B96BFAF7E
:101B8000AEAF6B972F96EEADFFAD2F9736962F9693
:101B9000FFAFEEAF2F970430110509F040CFFFEFF4
:101BA0008F1A9F0A63962EAD3FAD63972E5F3F4F0E
:101BB00063963FAF2EAF639767964EAD5FAD679765
:101BC000405F5F4F67965FAF4EAF67972B968EADC6
:101BD0009FAD2B9706962B969FAF8EAF2B9794E0D9
:101BE0008916910409F001CF20E030E080E090E018
:101BF000A816B90679F0009769F0F901EE0FFF1FFA
:101C000041E450E04C0F5D1FE40FF51F918380838A
:101C10002F5F3F4F01968430910551F72596EEAC2A
:101C2000FFAC259727960EAD1FAD2797D801AA0FB9
:101C3000BB1FAA0FBB1FFD01EE0DFF1DEE0FFF1F07
:101C4000EE0FFF1F81E090E08C0F9D1FE80FF91F42
:101C5000A00FB11FAA0FBB1FAA0FBB1FA80FB91F50
:101C60002D913D914D915C91608171818281938133
:101C70000E9419101B012C01C501880F991F880FA4
:101C8000991FFC01EE0DFF1DEE0FFF1FEE0FFF1F52
:101C9000A1E0B0E0AC0FBD1FEA0FFB1FDC01A00FFD
:101CA000B11FAA0FBB1FAA0FBB1F21E030E02C0FF2
:101CB0003D1FA20FB31F2D913D914D915C9160810D
:101CC0007181828193810E9419109B01AC01C20134
:101CD000B1010E946012181664F426969FAD2697F3
:101CE00027968FAD27972796BFAEAEAE2797A92E22
:101CF000B82E86E027964EAD5FAD2797849FD00122
:101D0000859FB00D1124A60DB71D8D909C90119745
:101D10008A9DF0018B9DF00D1124E60DF71DA0802A
:101D2000B18016964D905C90179766807780B401CD
:101D30006A197B0980E090E00E9474119B01AC015C
:101D4000B2016619770980E090E0A6962FAFA697BA
:101D5000A7963FAFA797A8964FAFA897A9965FAF52
:101D6000A9970E947411A6962FADA697A7963FAD8E
:101D7000A797A8964FADA897A9965FADA9970E947F
:101D80008C102BED3FE049EC5FE30E9419106B01D2
:101D90007C01DC01CB01B05829968CAF9DAFAEAF72
:101DA000BFAF2997BC01CD010E94DF102D966CAF0B
:101DB0007DAF8EAF9FAF2D97C701B6010E94CE12A7
:101DC0006B017C0129966CAD7DAD8EAD9FAD2997E1
:101DD0000E94CE1261966CAF7DAF8EAF9FAF6197C0
:101DE000B501680D791D7695679580E090E00E94B9
:101DF000741120E030E040EC53E40E9418104B01D5
:101E00005C01B301640D751D7695679580E090E0E7
:101E10000E94741120E030E0A9010E9418102B01EB
:101E20003C012BE734E14EE65FE3609137017091AE
:101E300038018091390190913A010E946B126596A8
:101E40006CAF7DAF8EAF9FAF6597C701B60190585D
:101E5000A50194010E946B1269966CAF7DAF8EAFA5
:101E60009FAF6997A3019201C701B6010E946B124F
:101E70009B01AC0169966CAD7DAD8EAD9FAD699750
:101E80000E94181028E23CE54FE85DE30E946B12C7
:101E90009B01AC0165966CAD7DAD8EAD9FAD659738
:101EA0000E941910609337017093380180933901B3
:101EB00090933A012BE734E14EE65FE360913B01FA
:101EC00070913C0180913D0190913E010E946B1206
:101ED0006B017C0161966CAD7DAD8EAD9FAD619760
:101EE0009058A50194010E946B124B015C01A30163
:101EF00092012D966CAD7DAD8EAD9FAD2D970E945C
:101F00006B129B01AC01C501B4010E94181028E2BC
:101F10003CE54FE85DE30E946B129B01AC01C701F9
:101F2000B6010E94191060933B0170933C018093AD
:101F30003D0190933E0129962CAD3DAD4EAD5FAD78
:101F40002997209333013093340140933501509306
:101F5000360109C080913F01909140010196909314
:101F6000400180933F01C859DF4F0FB6F894DEBFA0
:101F70000FBECDBFDF91CF911F910F91FF90EF90DA
:101F8000DF90CF90BF90AF909F908F907F906F9099
:101F90005F904F903F902F90089580913201811172
:101FA00002C00E948E0C8AE191E00E94790288238F
:101FB00021F08AE191E00C94940C0895CF93DF9383
:101FC000CDB7DEB72C970FB6F894DEBF0FBECDBFEE
:101FD000CE0101962C960FB6F894DEBF0FBECDBF92
:101FE000DF91CF91089580E88093610010926100A5
:101FF000229A2A9A219A229A40E050E06AE979E9E5
:1020000089E99EE30E94830440E050E06AE979E9AF
:1020100089E99EE30E94960443E060E086E10E9425
:102020009A0B43E060E071E084E10E94430CF9CF39
:102030005058BB27AA270ED0F8C1C1D130F0C6D165
:1020400020F031F49F3F11F41EF491C10EF4E0959D
:10205000E7FB87C1E92F0BD280F3BA17620773073A
:102060008407950718F071F49EF523C20EF4E095ED
:102070000B2EBA2FA02D0B01B90190010C01CA0142
:10208000A0011124FF27591B99F0593F50F4503EED
:1020900068F11A16F040A22F232F342F4427585FDF
:1020A000F3CF469537952795A795F0405395C9F7F7
:1020B0007EF41F16BA0B620B730B840BBAF09150AF
:1020C000A1F0FF0FBB1F661F771F881FC2F70EC04E
:1020D000BA0F621F731F841F48F487957795679521
:1020E000B795F7959E3F08F0B3CF9395880F08F00A
:1020F0009927EE0F97958795089561D158F080E85C
:1021000091E009F49EEF62D128F040E851E059F4E3
:102110005EEF09C02CC1CDC1E92FE078A8D168F3EA
:10212000092E052AC1F3261737074807590738F043
:102130000E2E07F8E02569F0E025E0640AC0EF63A1
:1021400007F8009407FADB01B9019D01DC01CA011F
:10215000AD01EF9344D069D10AD05F91552331F09E
:102160002BED3FE049E450FD49EC63CF0895DF9348
:10217000DD27B92FBF7740E85FE31616170648073B
:102180005B0710F4D92FA0D19F938F937F936F9308
:102190004DD2EEE2F1E0EED048D12F913F914F9138
:1021A0005F91A5D1DD2349F09058A2EA2AED3FE0E6
:1021B00049EC5FE3D0785D274DDFDF9136C10ED16A
:1021C000E39544C103D140F0FAD030F021F45F3FF1
:1021D00019F0C7C051116EC1CAC049D198F39923F3
:1021E000C9F35523B1F3951B550BBB27AA276217DB
:1021F0007307840738F09F5F5F4F220F331F441F20
:10220000AA1FA9F333D00E2E3AF0E0E830D0915057
:102210005040E695001CCAF729D0FE2F27D0660F44
:10222000771F881FBB1F261737074807AB07B0E883
:1022300009F0BB0B802DBF01FF2793585F4F2AF099
:102240009E3F510568F08DC035C15F3FECF3983E6D
:10225000DCF3869577956795B795F7959F5FC9F7F6
:10226000880F911D9695879597F90895E1E0660F7F
:10227000771F881FBB1F621773078407BA0720F0F8
:10228000621B730B840BBA0BEE1F88F7E095089561
:10229000F6D088F09F5790F0B92F9927B751A0F04A
:1022A000D1F0660F771F881F991F1AF0BA95C9F7EA
:1022B00012C0B13081F0FDD0B1E00895FAC0672FAF
:1022C000782F8827B85F39F0B93FCCF3869577959A
:1022D0006795B395D9F73EF4909580957095619583
:1022E0007F4F8F4F9F4F0895E89409C097FB3EF4AE
:1022F00090958095709561957F4F8F4F9F4F992353
:10230000A9F0F92F96E9BB279395F69587957795D0
:102310006795B795F111F8CFFAF4BB0F11F460FF90
:102320001BC06F5F7F4F8F4F9F4F16C0882311F0E8
:1023300096E911C0772321F09EE8872F762F05C0FC
:10234000662371F096E8862F70E060E02AF09A9597
:10235000660F771F881FDAF7880F9695879597F98C
:10236000089597F99F6780E870E060E008959FEF17
:1023700080EC0895DF93CF931F930F93FF92EF921A
:10238000DF927B018C01689405C0DA2EEF01AFD09B
:10239000FE01E894A5912591359145915591AEF3B3
:1023A000EF0158DEFE019701A801DA9479F7DF907A
:1023B000EF90FF900F911F91CF91DF91089500242E
:1023C0000A941616170618060906089500240A949A
:1023D00012161306140605060895C9CF50D0E8F367
:1023E000E894E0E0BB279F57F0F02AED3FE049EC8E
:1023F00006C0EE0FBB0F661F771F881F28F0B23A8A
:1024000062077307840728F0B25A620B730B840BC0
:10241000E3959A9572F7803830F49A95BB0F661F52
:10242000771F881FD2F790482CC1092E0394000C07
:1024300011F4882352F0BB0F40F4BF2B11F460FF5E
:1024400004C06F5F7F4F8F4F9F4F0895EF93E0FF62
:1024500006C0A2EA2AED3FE049EC5FEBFBDDE5DFD9
:102460000F90039401FC9058EBE5F1E01DC157FD7E
:102470009058440F551F59F05F3F71F04795880FF2
:1024800097FB991F61F09F3F79F087950895121689
:1024900013061406551FF2CF4695F1DF08C0161635
:1024A00017061806991FF1CF8695710561050894E6
:1024B0000895E894BB2766277727CB0197F90895FD
:1024C000BAD008F48FEF08959B01AC0160E070E092
:1024D00080E89FE3AEC00BD0A8CF71DF28F076DF95
:1024E00018F0952309F03DCF42CF1124E3CFBFDF91
:1024F000A0F3959FD1F3950F50E0551F629FF00117
:10250000729FBB27F00DB11D639FAA27F00DB11D6F
:10251000AA1F649F6627B00DA11D661F829F2227F8
:10252000B00DA11D621F739FB00DA11D621F839F7F
:10253000A00D611D221F749F3327A00D611D231F55
:10254000849F600D211D822F762F6A2F11249F57A3
:1025500050408AF0E1F088234AF0EE0FFF1FBB1FC6
:10256000661F771F881F91505040A9F79E3F510565
:1025700070F0F7CE9FCF5F3FECF3983EDCF386958B
:1025800077956795B795F795E7959F5FC1F7FE2B10
:10259000880F911D9695879597F908959F931EDF53
:1025A0000F9007FCEE5F52CF11F40EF4E0CE67C03F
:1025B00066DFD0F39923D9F3CEF39F57550B87FFEE
:1025C0006CD00024A0E640EA90018058569597957B
:1025D00028F4805C660F771F881F20F026173707C6
:1025E000480730F4621B730B840B202931294A2BD6
:1025F000A69517940794202531254A2758F7660F8A
:10260000771F881F20F026173707480730F4620B22
:10261000730B840B200D311D411DA09581F7B9016D
:10262000842F9158880F9695879508959B01AC014A
:1026300052CFD3DDFACE990F0008550FAA0BE0E870
:10264000FEEF16161706E807F907C0F01216130674
:10265000E407F50798F0621B730B840B950B39F4B4
:102660000A2661F0232B242B252B21F408950A261A
:1026700009F4A140A6958FEF811D811D08959F3F0C
:1026800031F0915020F4879577956795B795880F2D
:10269000911D9695879597F9089591505040660F32
:1026A000771F881FD2F708959F938F937F936F931F
:1026B000FF93EF939B01AC010EDFEF91FF915ADE88
:1026C0002F913F914F915F9106CFEE0FFF1F059025
:1026D000F491E02D099497FF03C09195819591099C
:1026E0000895BB274A3031F4992322F4BDE2909536
:1026F00081959F4F0C94AE13BB272A3051F4992338
:1027000042F4BDE290958095709561957F4F8F4F13
:102710009F4F0C948C13BB27FA01A62F62177105EB
:1027200081059105330B30FB66F0AA27660F771FF2
:10273000881F991FAA1FA21710F0A21B639538507B
:10274000A9F7A05DAA3308F0A95DA19336F7B111EE
:10275000B1931082CA010C94C713BB27FB01552704
:10276000AA27880F991FAA1FA41710F0A41B8395EE
:102770005051B9F7A05DAA3308F0A95DA193009765
:1027800079F7B111B1931192CB010C94C713DC010D
:10279000FC01672F71917723E1F7329704C07C9198
:1027A0006D9370836291AE17BF07C8F30895F894D4
:0227B000FFCF59
:0A27B20003030300E100000000082B
:00000001FF
