:100000000C941E010C943B010C943B010C94560182
:100010000C943B010C943B010C943B010C943B0170
:100020000C943B010C943B010C941F0A0C94590A4C
:100030000C943B010C943B010C943B010C943B0150
:100040000C943B010C943B010C943B010C943B0140
:100050000C943B010C943B010C943B010C948401E7
:100060000C943B010C943B010C943B010C943B0120
:100070000C943B010C943B010C943B010C943B0110
:100080000C943B010C943B010C943B010C943B0100
:100090000C943B010C943B010C943B010C943B01F0
:1000A0000C943B010C943B010C943B01C709BF0924
:1000B000B709AF09A7099F0997098F0987097F0920
:1000C00077096F0967095F0957094F0947093F0910
:1000D00037092F0927091F0917090F090709FF0801
:1000E000F708EF08E708DF08D708CF08C708BF08F8
:1000F000B708AF08A7089F0897088F0887087F08E8
:1001000077086F0867085F0857084F0847083F08D7
:1001100037082F0827081F0817080F080708FF07C8
:10012000F707EF07E707DF07D707CF07C707084A33
:10013000D73B3BCE016E84BCBFFDC12F3D6C7431FB
:100140009ABD56833DDA3D00C77F11BED9E4BB4C52
:100150003E916BAAAABE000000803F05A84CCDB21C
:10016000D44EB93836A9020C50B9918688083CA6FD
:10017000AAAA2ABE000000803F00212121212121BE
:100180002121212121210A0D00000100002002125D
:1001900000020000DD014300030000D90104010357
:1001A0000904C5011202030904BD01060303090481
:1001B000B301080803340031003000000006034D8D
:1001C000003200000012034A002E002000460069A1
:1001D0000065006E00650000000403090409024385
:1001E00000020100C0320904000001020201000502
:1001F000240010010524010101042402060524063F
:1002000000010705820310004009040100020A00F2
:1002100000000705030240000007058402400000BB
:100220001201000202000010C0167A04000101024F
:1002300003010001C11201803601813611241FBE65
:10024000CFEFDAE0DEBFCDBF11E0A0E0B1E0E6E441
:10025000FBE202C005900D92A431B107D9F721E06D
:10026000A4E1B1E001C01D92AE36B207E1F70E94F1
:10027000BA110C94A1150C9400006E9A769808950A
:10028000E1E6F0E080E880831082229A2A9A209AA0
:10029000219A4AE064E181E00E94510D0E94BC066F
:1002A00086E90E94100481E00C943A041F920F9298
:1002B0000FB60F9211242F933F934F935F936F9339
:1002C0007F938F939F93AF93BF93EF93FF936AE0D6
:1002D00089E591E00E94A90D992787FD909590935B
:1002E000170180931601FF91EF91BF91AF919F91FC
:1002F0008F917F916F915F914F913F912F910F90CF
:100300000FBE0F901F9018951F920F920FB60F926D
:1003100011248F939F9381E090E090931501809337
:1003200014019F918F910F900FBE0F901F90189501
:1003300090936A0180936901089580916901909179
:100340006A010895909364018093630108958091F8
:10035000630190916401089590936C0180936B0107
:10036000089580916B0190916C01089590936601BE
:1003700080936501089580916501909166010895CB
:10038000909368018093670108958091670190912F
:100390006801089520E030E08091BC0087FD06C030
:1003A0002F5F3F4F293E83E03807B1F781E0283EB9
:1003B000334009F480E008958093BB0084E8809383
:1003C000BC000E94CA01882319F08091B900887F7F
:1003D0000895CF93C82F84EA8093BC000E94CA017D
:1003E000882361F08C2F880F0E94DC01803229F471
:1003F00084E98093BC0080E001C081E0CF91089542
:100400000E94A90C88E50E94E901811102C080E0E8
:10041000089580E30E94DC018823C9F381E00E94F3
:10042000DC018823A1F384E98093BC008FE39CE97D
:100430000197F1F700C0000088E50E94E9018823D8
:1004400031F380E00E94DC01882309F380E00E9400
:10045000DC018823E1F280E00E94DC018823B9F20C
:1004600080E00E94DC01882391F280E00E94DC01A0
:10047000882369F280E00E94DC01882341F280E059
:100480000E94DC01882319F280E90E94DC018823A4
:1004900009F4BDCF84E98093BC008FE39CE9019708
:1004A000F1F700C0000088E50E94E901882309F403
:1004B000AECF87E00E94DC01882309F4A8CF80E05A
:1004C0000E94DC01882309F4A2CF81E40E94DC01B0
:1004D000882309F49CCF84E98093BC008FE39CE9D6
:1004E0000197F1F700C0000088E50E94E901882328
:1004F00009F48DCF8AE10E94DC01882309F487CFBB
:1005000080E40E94DC01882309F481CF80E00E940E
:10051000DC01882309F47BCF84E98093BC008FE35E
:100520009CE90197F1F700C0000088E50E94E9010D
:10053000882309F46CCF83E30E94DC01882309F44B
:1005400066CF83E00E94DC01882309F460CF84E950
:100550008093BC008FE39CE90197F1F700C0000095
:1005600088E50E94E901882309F451CF80E30E94C5
:10057000DC01882309F44BCF88E00E94DC0188234A
:1005800009F445CF84E98093BC008FE39CE901978F
:10059000F1F700C0000081E00895CF93C82F84EAEE
:1005A0008093BC000E94CA01882369F08C2F880FB9
:1005B0008F5F0E94DC01883429F484E98093BC00B9
:1005C00080E001C081E0CF910895EF92FF920F93F8
:1005D0001F93CF93DF93CDB7DEB760970FB6F89434
:1005E000DEBF0FBECDBF7C018E010F5F1F4F80E1CC
:1005F000F80111928A95E9F788E50E94E9018111D5
:1006000002C080E05EC086E30E94DC018823C9F35B
:1006100084E98093BC00F5E8FA95F1F7000088E5DD
:100620000E94CD02882369F3F8019E01205F3F4FAD
:1006300094EC9093BC008091BC0087FFFCCF80912C
:10064000BB008193E217F307A1F784E88093BC0015
:100650008091BC0087FFFCCF8091BB00888B84E930
:100660008093BC00DE01149687016C91762F707325
:10067000AD0142505109FA01808190E0F0E17F9F85
:10068000800D911D1124F80191838083762F707C59
:100690004F5F5F4FFA01808190E0F4E07F9F800D13
:1006A000911D1124F801938382836F70862F90E04F
:1006B0009583848313960A5F1F4FA217B307A9F689
:1006C00081E060960FB6F894DEBF0FBECDBFDF911C
:1006D000CF911F910F91FF90EF90089584E980933F
:1006E000BC000895CF93DF9300D000D0CDB7DEB724
:1006F0009A01AB019093190180931801909389009E
:1007000080938800BC0180E090E029833A834B838A
:100710005C830E94441329813A814B815C810E9451
:100720005F140E94181370938B0060938A0080916D
:100730001A0190911B01892BA1F5809181008061A4
:1007400080938100809181008860809381008091F6
:10075000800082608093800080918000816080931F
:100760008000809180008062809380008091800072
:100770008F7E80938000809181008B7F80938100A9
:1007800080918100826080938100809181008E7FC2
:1007900080938100269A81E090E090931B018093E2
:1007A0001A010F900F900F900F90DF91CF91089545
:1007B000CF93DF9300D000D0CDB7DEB79B01AC0163
:1007C000609118017091190180E090E029833A83CB
:1007D0004B835C830E94441329813A814B815C8165
:1007E0000E945F140E94181370938B0060938A001C
:1007F0000F900F900F900F90DF91CF910895E1E847
:10080000F0E080818B7F808380818D7F80838081F9
:100810008E7F8083269810921B0110921A010895F2
:1008200087BD85B5886085BD84B5826084BD84B58B
:10083000816084BD84B58F7784BD84B58F7B84BD92
:1008400084B58F7D84BD84B58F7E84BD85B584607D
:1008500085BD85B58D7F85BD85B5816085BD0895D4
:1008600085B58B7F85BD85B58D7F85BD85B58E7F33
:1008700085BD0895882339F080916E008160809352
:100880006E007894089580916E008E7F80936E0044
:100890000895CF93DF9300D000D0CDB7DEB79A0193
:1008A000AB0190931D0180931C019093970080935E
:1008B0009600BC0180E090E029833A834B835C83FF
:1008C0000E94441329813A814B815C810E945F140C
:1008D0000E941813709399006093980080911E01F4
:1008E00090911F01892BA1F58091910080618093E7
:1008F0009100809191008860809391008091900098
:10090000826080939000809190008E7F8093900011
:1009100080919000806880939000809190008F7B00
:1009200080939000809191008B7F809391008091C3
:100930009100826080939100809191008E7F8093DE
:1009400091003E9A81E090E090931F0180931E01F8
:100950000F900F900F900F90DF91CF910895CF934C
:10096000DF9300D000D0CDB7DEB79B01AC01609122
:100970001C0170911D0180E090E029833A834B8334
:100980005C830E94441329813A814B815C810E94DF
:100990005F140E94181370939900609398000F9051
:1009A0000F900F900F90DF91CF910895E1E9F0E063
:1009B00080818B7F808380818D7F808380818E7F0B
:1009C00080833E9810921F0110921E01089580E0CE
:1009D00090E00E9498010E94D6040C94FF030895B1
:1009E000CF92DF92EF92FF9269017A01BA01A901D9
:1009F00080E091E00E947203B701A60180E091E0DF
:100A00000E9449040E94C50160E070E0CB010E9491
:100A1000C2146B017C0182E090E00E94A20120E000
:100A200030E0A901C701B6010E94E0110E94131332
:100A3000635E7F4F6B337105B0F460E070E0CB0113
:100A40000E941313635E7F4F6B33710560F40E9445
:100A5000FF030E94D60480E090E0FF90EF90DF90CB
:100A6000CF900C94A201FF90EF90DF90CF9008956B
:100A7000CF93DF93EA01AB01BC0180E094E00E94D8
:100A80007203CD2B11F0289A01C02898DF91CF91E5
:100A900008950C94FF03CF93DF93EA01AB01BC01EF
:100AA00080E094E00E944904CD2B11F4299A01C002
:100AB0002998DF91CF9108958F929F92AF92BF9224
:100AC000CF92DF92EF92FF92CF93DF937C015B0195
:100AD0009093250180932401709323016093220158
:100AE00081E090E00E9498010E94C501909321014D
:100AF0008093200120E030E048EC52E4FC01608566
:100B00007185828593850E945F140E941313CB0127
:100B10000E94DC0B8AE791E00E94A80BC0912001A3
:100B2000D0912101B701882777FD8095982F0E94E9
:100B30004613288139814A815B810E94DF116B0154
:100B40007C01B501882777FD8095982F0E94461378
:100B50002C813D814E815F810E94DF11A7019601AA
:100B60000E9453124B015C01C884D984EA84FB843F
:100B700020ED3FE049E450E4C701B6010E9454145F
:100B800018165CF420ED3FE049EC50E4C701B601D3
:100B90000E94DF116B017C01EBCFA7019601C5011B
:100BA000B4010E94DF116B017C0120ED3FE049E4BC
:100BB00050E40E945414181654F420ED3FE049EC20
:100BC00050E4C701B6010E94DF116B017C0120EDEA
:100BD0003FE049E450ECC701B6010E94A61287FF2E
:100BE0000AC020ED3FE049EC50E4C701B6010E9485
:100BF000E0116B017C0120E030E0A901C701B601E2
:100C00000E9454141816FCF46E9A769A40E050E054
:100C100060E070E080E09FE30E944B0541E050E01F
:100C200060E070E080E09FE30E9438056A9A729865
:100C3000DF91CF91FF90EF90DF90CF90BF90AF907A
:100C40009F908F90089520E030E0A901C701B60180
:100C50000E94A61287FF1CC06E9A769841E050E071
:100C600060E070E080E09FE30E944B0540E050E0D0
:100C700060E070E080E09FE3DF91CF91FF90EF9024
:100C8000DF90CF90BF90AF909F908F900C943805DD
:100C9000DF91CF91FF90EF90DF90CF90BF90AF901A
:100CA0009F908F900C94E704609122017091230132
:100CB00080912401909125010C945C050C94D6043C
:100CC000CF93DF93ACE7B0E08C918F778C938C91CE
:100CD00080648C93EAE7F0E0808184608083808187
:100CE00082608083808181608083CEE7D0E08881CC
:100CF00081608883808180628083CBE7D0E08881B7
:100D00008F7D88838C918B7F8C938C918D7F8C933E
:100D10008C918E7F8C9380818068808380818064B9
:100D20008083DF91CF910895892B39F080917A00EB
:100D3000886080937A007894089580917A00877F04
:100D400080937A000895EAE7F0E090819F7790839E
:100D5000ACE7B0E09C918770987F892B8C93808161
:100D600080688083089580917C00877008958091C9
:100D7000E80080FFFCCF089581E08093D70080EAEF
:100D80008093D80082E189BD09B400FEFDCF80E9DF
:100D90008093D8001092E000109229011092260151
:100DA0008CE08093E2007894089580912901089561
:100DB0009FB7F89480912901882339F083E08093CC
:100DC000E9008091E80085FD03C09FBF8FEF089583
:100DD0008091F1002091E80025FD03C02BE62093CF
:100DE000E8009FBF08959FB7F89480912901882358
:100DF00031F083E08093E9008091F20001C080E04F
:100E00009FBF089580912901882371F08FB7F894CE
:100E100093E09093E9002BE69091E80095FF03C0E2
:100E20002093E800F9CF8FBF08959091290199236D
:100E300071F09FB7F89424E02093E90020912701F6
:100E4000222349F02091E80025FD03C09FBF8FEFCA
:100E50000895109227012091E400275E34E040912C
:100E6000E80045FD12C09FBF9091E400921304C0BA
:100E700081E080932701EBCF90912901992339F3E9
:100E80009FB7F8943093E900EACF8093F100809106
:100E9000E80085FD03C08AE38093E80085E0809345
:100EA00028019FBF80E00895909129019923D1F0F6
:100EB0009FB7F89424E02093E9002091E80025FDF5
:100EC00002C09FBF0FC08093F1008091E80085FDB4
:100ED00003C08AE38093E80085E0809328019FBFE8
:100EE00080E008958FEF0895EF92FF921F93CF93C4
:100EF000DF937C01CB0120912901222371F0AFB750
:100F0000F89424E02093E90020912701222349F05E
:100F10002091E80025FD03C0AFBF8FEF42C21092C1
:100F20002701B4E0C0E4DAE315E0009709F437C222
:100F30002091E400275E3091E80035FD12C0AFBF7C
:100F40003091E400321304C081E080932701E5CFA3
:100F500030912901332309F3AFB7F894B093E90036
:100F6000EACF2091F2004C2F421B242F30E0821751
:100F7000930708F4482F841B910950E04134510530
:100F800008F0FDC14A5A5F4FFA010C943515F7017C
:100F900020812093F10097012F5F3F4F7901F701E6
:100FA00020812093F10097012F5F3F4F7901F701D6
:100FB00020812093F10097012F5F3F4F7901F701C6
:100FC00020812093F10097012F5F3F4F7901F701B6
:100FD00020812093F10097012F5F3F4F7901F701A6
:100FE00020812093F10097012F5F3F4F7901F70196
:100FF00020812093F10097012F5F3F4F7901F70186
:1010000020812093F10097012F5F3F4F7901F70175
:1010100020812093F10097012F5F3F4F7901F70165
:1010200020812093F10097012F5F3F4F7901F70155
:1010300020812093F10097012F5F3F4F7901F70145
:1010400020812093F10097012F5F3F4F7901F70135
:1010500020812093F10097012F5F3F4F7901F70125
:1010600020812093F10097012F5F3F4F7901F70115
:1010700020812093F10097012F5F3F4F7901F70105
:1010800020812093F10097012F5F3F4F7901F701F5
:1010900020812093F10097012F5F3F4F7901F701E5
:1010A00020812093F10097012F5F3F4F7901F701D5
:1010B00020812093F10097012F5F3F4F7901F701C5
:1010C00020812093F10097012F5F3F4F7901F701B5
:1010D00020812093F10097012F5F3F4F7901F701A5
:1010E00020812093F10097012F5F3F4F7901F70195
:1010F00020812093F10097012F5F3F4F7901F70185
:1011000020812093F10097012F5F3F4F7901F70174
:1011100020812093F10097012F5F3F4F7901F70164
:1011200020812093F10097012F5F3F4F7901F70154
:1011300020812093F10097012F5F3F4F7901F70144
:1011400020812093F10097012F5F3F4F7901F70134
:1011500020812093F10097012F5F3F4F7901F70124
:1011600020812093F10097012F5F3F4F7901F70114
:1011700020812093F10097012F5F3F4F7901F70104
:1011800020812093F10097012F5F3F4F7901F701F4
:1011900020812093F10097012F5F3F4F7901F701E4
:1011A00020812093F10097012F5F3F4F7901F701D4
:1011B00020812093F10097012F5F3F4F7901F701C4
:1011C00020812093F10097012F5F3F4F7901F701B4
:1011D00020812093F10097012F5F3F4F7901F701A4
:1011E00020812093F10097012F5F3F4F7901F70194
:1011F00020812093F10097012F5F3F4F7901F70184
:1012000020812093F10097012F5F3F4F7901F70173
:1012100020812093F10097012F5F3F4F7901F70163
:1012200020812093F10097012F5F3F4F7901F70153
:1012300020812093F10097012F5F3F4F7901F70143
:1012400020812093F10097012F5F3F4F7901F70133
:1012500020812093F10097012F5F3F4F7901F70123
:1012600020812093F10097012F5F3F4F7901F70113
:1012700020812093F10097012F5F3F4F7901F70103
:1012800020812093F10097012F5F3F4F7901F701F3
:1012900020812093F10097012F5F3F4F7901F701E3
:1012A00020812093F10097012F5F3F4F7901F701D3
:1012B00020812093F10097012F5F3F4F7901F701C3
:1012C00020812093F10097012F5F3F4F7901F701B3
:1012D00020812093F10097012F5F3F4F7901F701A3
:1012E00020812093F10097012F5F3F4F7901F70193
:1012F00020812093F10097012F5F3F4F7901F70183
:1013000020812093F10097012F5F3F4F7901F70172
:1013100020812093F10097012F5F3F4F7901F70162
:1013200020812093F10097012F5F3F4F7901F70152
:1013300020812093F10097012F5F3F4F7901F70142
:1013400020812093F10097012F5F3F4F7901F70132
:1013500020812093F10097012F5F3F4F7901F70122
:1013600020812093F10097012F5F3F4F7901F70112
:1013700020812093F10097012F5F3F4F7901F70102
:1013800020812093F10097012F5F3F4F7901209139
:10139000E80025FFD093E80010932801C6CDAFBF29
:1013A00080E0DF91CF911F91FF90EF9008958FB76C
:1013B000F89490912801992341F094E09093E900EA
:1013C0009AE39093E800109228018FBF08958091CE
:1013D0000401089580910501089580910601089502
:1013E0008091260108959FB7F89420912901222326
:1013F00039F022E02093E9003091E80035FD03C088
:101400009FBF8FEF089531EA3093F10030E23093BF
:10141000F1001092F1001092F1001092F100109280
:10142000F1002093F1001092F1008093F1001092EE
:10143000F1008AE38093E8009FBF80E008951F9247
:101440000F920FB60F9211248F939F938091E1001A
:101450001092E10083FF11C01092E90091E0909397
:10146000EB001092EC0092E19093ED0098E09093E5
:10147000F000109229011092260182FF13C0809182
:101480002901882379F080912801882359F081501F
:1014900080932801811106C084E08093E9008AE3EB
:1014A0008093E8009F918F910F900FBE0F901F9037
:1014B00018951F920F920FB60F921124EF92FF9280
:1014C0000F931F932F933F934F935F936F937F934C
:1014D0008F939F93AF93BF93EF93FF93CF93DF933C
:1014E0001F92CDB7DEB71092E9008091E80083FF2C
:1014F00014C19091F1008091F1003091F1002091A0
:10150000F100E32EF12CF22A0091F1002091F1007C
:1015100010E0122B2091F1006091F10032EF309336
:10152000E800863009F046C036E089E891E0FC0129
:10153000459154914E155F0539F4FC013296459161
:1015400054914017510721F00796315081F7E5C0BB
:10155000FC01349645915491FC013696849130E01B
:10156000362B2F3F310519F010F02FEF30E0281700
:1015700008F4822F3EEF9091E800292F2570D9F3CF
:1015800092FDCEC0982F813108F090E1FA01292F09
:10159000222331F064916093F10021503196F8CF0D
:1015A000490F511D891B3093E8008111E4CF903120
:1015B00011F3B6C0853051F48EEF8093E8000E949D
:1015C000B7068E2D80688093E300AAC0893059F554
:1015D000911180C0E09229011092260110922801F9
:1015E0008EEF8093E80041E082E392E04093E900CF
:1015F0009C012F5F3F4FFC0154915093EB0055230A
:1016000059F0F90124912093EC009C012D5F3F4F8C
:10161000319684918093ED004F5F453011F0C90100
:10162000E5CF8EE175C0883051F4903809F052C092
:101630000E94B706809129018093F10047C0813252
:1016400079F4913A09F046C00E94B706E0E0F1E073
:1016500081918093F10081E0E730F807C9F736C047
:10166000803299F49132B1F58091E80082FFFCCF8D
:10167000E0E0F1E08091F100819381E0E730F8074C
:10168000C9F78BEF8093E80021C0823241F4913298
:1016900009F043C0E09226010E94B70617C08111ED
:1016A00019C099830E94B7069981923851F400932A
:1016B000E9008091EB0085FB882780F91092E90012
:1016C00001C080E08093F1001092F1008EEF8093D2
:1016D000E80026C0282F2D7F2130F9F49230E9F45C
:1016E000EF28D9F40F779FEF900F9430B0F49EEF6E
:1016F0009093E8000093E900833079F089E18093CA
:10170000EB0081E090E0002E01C0880F0A94EAF718
:101710008093EA001092EA0003C081E28093EB001C
:101720000F90DF91CF91FF91EF91BF91AF919F917A
:101730008F917F916F915F914F913F912F911F9169
:101740000F91FF90EF900F900FBE0F901F90189584
:101750001F93CF93DF93EC01FE011491112351F0FD
:101760001A3019F48DE00E941507812F0E94150789
:101770002196F2CFDF91CF911F9108958A3010F416
:1017800090E301C097E3890F0C941507CF93C82FFE
:1017900082958F700E94BE0B8C2F8F70CF910C940E
:1017A000BE0BCF93C82F892F0E94C60B8C2FCF91D1
:1017B0000C94C60B0C94C60BEF92FF920F931F93E1
:1017C000CF93DF93CDB7DEB727970FB6F894DEBF80
:1017D0000FBECDBF8E010F5F1F4F27E0F8011192A2
:1017E0002A95E9F74AE0B8010E943B157E01F8E02E
:1017F000EF0EF11CF80181918F0181110E941507F4
:101800000E151F05B9F727960FB6F894DEBF0FBE69
:10181000CDBFDF91CF911F910F91FF90EF90089571
:10182000EF92FF920F931F93CF93DF9300D000D0DE
:1018300000D0CDB7DEB78E010F5F1F4F26E0F80155
:1018400011922A95E9F74AE0B8010E9477157E01C6
:10185000F6E0EF0EF11CF80181918F0181110E94D9
:1018600015070E151F05B9F726960FB6F894DEBFBB
:101870000FBECDBFDF91CF911F910F91FF90EF90E1
:101880000895EF92FF920F931F93CF93DF93CDB7FD
:10189000DEB72B970FB6F894DEBF0FBECDBF8E011B
:1018A0000F5F1F4F2BE0F80111922A95E9F72AE00C
:1018B000A8010E9446157E01FCE0EF0EF11CF80124
:1018C00081918F0181110E9415070E151F05B9F72F
:1018D0002B960FB6F894DEBF0FBECDBFDF91CF9130
:1018E0001F910F91FF90EF900895EF92FF920F9349
:1018F0001F93CF93DF93CDB7DEB72B970FB6F89436
:10190000DEBF0FBECDBF8E010F5F1F4F2BE0F80172
:1019100011922A95E9F72AE0A8010E9455157E0147
:10192000FBE0EF0EF11CF80181918F0181110E9403
:1019300015070E151F05B9F72B960FB6F894DEBFE5
:101940000FBECDBFDF91CF911F910F91FF90EF9010
:101950000895589A599A5A9A8CE08093B800E9E60B
:10196000F0E080818062808380818F7E8083EA9A2C
:101970007894089584E88093BC008091BC0087FF30
:10198000FCCF8091BB00089584E98093BC0008954A
:1019900020E030E08091BC0087FD06C02F5F3F4F04
:1019A000293E83E03807B1F781E0283E334009F44F
:1019B00080E008958093BB0084E88093BC000E947F
:1019C000C80C882321F08091B900887F089580E0B9
:1019D00008951F93CF93DF931F92CDB7DEB7182FD3
:1019E00084EA8093BC0069830E94C80C69818111DC
:1019F00004C094E99093BC0014C0812F880F662323
:101A000031F08F5F0E94DA0C883451F404C00E94D8
:101A1000DA0C803229F484E98093BC0080E001C0B4
:101A200081E00F90DF91CF911F910895CF93DF93C5
:101A3000C82FD62F60E00E94E90C882391F08D2FEB
:101A40000E94DA0C882369F084E98093BC0061E08D
:101A50008C2F0E94E90C882321F0DF91CF910C9408
:101A6000BA0C80E0DF91CF910895CF93DF93D62F0A
:101A7000C42F60E00E94E90C811102C080E00EC01A
:101A80008D2F0E94DA0C8823C9F38C2F0E94DA0C68
:101A90008823A1F384E98093BC0081E0DF91CF919A
:101AA0000895CF93DF9300D01F92CDB7DEB74B835D
:101AB0006A8389830E94A90C94EA9093BC0089816F
:101AC0006A814B819091BC0097FFFCCF90E5909389
:101AD000BB0094E89093BC009091BC0097FFFCCFB2
:101AE0009091B900987F903229F484E98093BC00EA
:101AF00080E029C091E09093BB0094E89093BC00F3
:101B00009091BC0097FFFCCF8093BB0084E880934A
:101B1000BC008091BC0087FFFCCF6093BB0084E8D1
:101B20008093BC008091BC0087FFFCCF4093BB003A
:101B300084E88093BC008091BC0087FFFCCF84E9DF
:101B40008093BC0081E00F900F900F90DF91CF91B8
:101B5000089524EA2093BC002091BC0027FFFCCF0D
:101B600021E52093BB0024E82093BC002091BC0019
:101B700027FFFCCF2091B900287F2834A9F024EC5E
:101B80002093BC002091BC0027FFFCCF2091BB001C
:101B900026130AC0FC0120E030E0772767FD70952E
:101BA0006150710944EC0EC084E98093BC0080E070
:101BB00008955091BC0057FFFCCF5091BB0051934A
:101BC0002F5F3F4F261737071CF44093BC00F1CF1F
:101BD00044E84093BC004091BC0047FFFCCF4091DB
:101BE000BB00FC01E20FF31F408384E98093BC003B
:101BF00081E00895F89494EA9093BC009091BC0021
:101C000097FFFCCF90E59093BB0094E89093BC00C5
:101C10009091BC0097FFFCCF9091B900987F9032D3
:101C200031F484E98093BC00789480E0089593E0D7
:101C30009093BB0094E89093BC009091BC0097FFF8
:101C4000FCCF8093BB0084E88093BC008091BC00F3
:101C500087FFFCCFFB01552747FD509524E8CF01B6
:101C6000861B970B8417950754F481918093BB00D2
:101C70002093BC008091BC0087FFFCCFF0CF84E9AB
:101C80008093BC00789481E008950E94000288232C
:101C900021F081E08093560108950C943D012F922C
:101CA0003F924F925F926F927F928F929F92AF92EC
:101CB000BF92CF92DF92EF92FF920F931F93CF9339
:101CC000DF93CDB7DEB7CE55D1090FB6F894DEBF9E
:101CD0000FBECDBF5C01EAE2F1E0DC0180E090E004
:101CE00021E030E04D915C9111974F3F534039F422
:101CF00012964D915C9113974F3F534039F01496D3
:101D00004D915C9115974330510520F0318320832C
:101D1000019602C0118210821696329641E0E2339B
:101D2000F40701F702970CF0B9C210925801109213
:101D30005701CE01019669969FAF8EAF69972B969A
:101D4000BFAEAEAE2B97EAE2F1E06396FFAFEEAF27
:101D50006397812C912C6C961FAE6C976D961FAE7D
:101D60006D976E961FAE6E976F961FAE6F972F96FC
:101D7000BFAEAEAE2F972AE231E067963FAF2EAFEF
:101D8000679765961FAE1EAE6597212C312C6A961B
:101D90002FAE6A976B963FAE6B978214930409F44B
:101DA000C3C06396EEADFFAD639780819181892BAF
:101DB00009F0BAC06796EEADFFAD6797808191815B
:101DC000892B09F0B1C02B96EEADFFAD2B9760814A
:101DD000718180E090E00E9444136B017C012F969A
:101DE000EEADFFAD2F976081718180E090E00E94A1
:101DF00044139B01AC01C701B6010E94DF110E9490
:101E000013139B0177FF04C022273327261B370BB0
:101E1000B901882777FD8095982F0E9446132B01E2
:101E20003C012B96EEADFFAD2B976281738180E074
:101E300090E00E9444136B017C012F96EEADFFAD44
:101E40002F976281738180E090E00E9444139B0190
:101E5000AC01C701B6010E94DF110E9413139B0160
:101E600077FF04C022273327261B370BB9018827A9
:101E700077FD8095982F0E9446136B017C01A3018A
:101E80009201C301B2010E945F142B013C01A70122
:101E90009601C701B6010E945F149B01AC01C3010A
:101EA000B2010E94E0110E94CC146B017C016C967F
:101EB0002FAD6C976D963FAD6D976E964FAD6E974B
:101EC0006F965FAD6F970E94541418163CF06A9697
:101ED0000FAF6A976B961FAF6B9710C027969FAE98
:101EE0008EAE27976C96CFAE6C976D96DFAE6D97E2
:101EF0006E96EFAE6E976F96FFAE6F97C601D701E5
:101F00006996EEADFFAD699765962EAD3FAD6597CD
:101F1000E20FF31F80839183A283B3836A960FAD90
:101F20006A976B961FAD6B973FEF231A330A67963C
:101F30004EAD5FAD67974E5F5F4F67965FAF4EAF39
:101F4000679765968EAD9FAD6597049665969FAF32
:101F50008EAF65972F96EEADFFAD2F9736962F96E5
:101F6000FFAFEEAF2F97F4E02F16310409F00FCF3B
:101F70002FEF821A920A63964EAD5FAD63974E5F64
:101F80005F4F63965FAF4EAF639769968EAD9FAD1F
:101F90006997409669969FAF8EAF69972B96EEAD85
:101FA000FFAD2B9736962B96FFAFEEAF2B97F4E055
:101FB0008F16910409F0DBCE20E030E080E090E065
:101FC00027964EAD5FAD27974817590781F0081740
:101FD000190769F0F901EE0FFF1F41E450E04C0FC3
:101FE0005D1FE40FF51F918380832F5F3F4F0196A4
:101FF0008430910529F72396CEACDFAC2397259644
:10200000EEACFFAC25972796AEADBFAD2797AA0FD4
:10201000BB1FAA0FBB1FFD01EC0DFD1DEE0FFF1F27
:10202000EE0FFF1F81E090E08C0F9D1FE80FF91F5E
:10203000AE0DBF1DAA0FBB1FAA0FBB1FA80FB91F54
:102040002D913D914D915C9160817181828193814F
:102050000E94E0112B013C01C801880F991F880FD5
:10206000991FFC01EC0DFD1DEE0FFF1FEE0FFF1F72
:1020700021E030E02C0F3D1FE20FF31FDC01AE0D1D
:10208000BF1DAA0FBB1FAA0FBB1FA20FB31F2D910D
:102090003D914D915C9160817181828193810E941B
:1020A000E0119B01AC01C301B2010E945414181647
:1020B00064F426969FAD269727968FAD279727968F
:1020C0001FAF0EAF2797092F182F86E027964EAD2A
:1020D0005FAD2797849FF001859FF00D1124EA0DD5
:1020E000FB1D80809180809FD001819FB00D1124C5
:1020F000AA0DBB1D6D907C90119712960D911C91AD
:102100001397A280B380B40180E090E00E94441352
:102110006B017C01B30180E090E00E9444139B01BD
:10212000AC01C701B6010E94DF116B017C01B8014F
:1021300080E090E00E9444131B012C01B50180E077
:1021400090E00E9444139B01AC01C201B1010E94C6
:10215000DF11A70196010E9453126B017C01B301AC
:10216000680D791D80E090E00E94441320E030E08B
:1021700040E05FE30E945F1420E030E040E054E480
:102180000E94DF1129966CAF7DAF8EAF9FAF29976C
:10219000B501600F711F80E090E00E94441320E0C1
:1021A00030E040E05FE30E945F1420E030E040EC6C
:1021B00053E40E94DF112D966CAF7DAF8EAF9FAFC1
:1021C0002D97C701B6010E94AA124B015C01C701FD
:1021D000B6010E94C2142B013C0129962CAD3DADE5
:1021E0004EAD5FAD2997C501B4010E945F146196A1
:1021F0006CAF7DAF8EAF9FAF61972D962CAD3DAD8F
:102200004EAD5FAD2D97C301B2010E945F149B01DB
:10221000AC0161966CAD7DAD8EAD9FAD61970E94B6
:10222000DF1160930B0170930C0180930D0190936B
:102230000E0129962CAD3DAD4EAD5FAD2997C30182
:10224000B2010E945F142B013C012D962CAD3DADD7
:102250004EAD5FAD2D97C501B4010E945F149B0187
:10226000AC01C301B2010E94E01160930F017093B1
:1022700010018093110190931201A701960160ED66
:102280007FE089E490E40E94DF116093070170937E
:1022900008018093090190930A0109C080915701B8
:1022A0009091580101969093580180935701C25A1A
:1022B000DF4F0FB6F894DEBF0FBECDBFDF91CF91D9
:1022C0001F910F91FF90EF90DF90CF90BF90AF9054
:1022D0009F908F907F906F905F904F903F902F9046
:1022E000089580910B0190910C01A0910D01B09186
:1022F0000E018093320190933301A0933401B09387
:10230000350180910F0190911001A0911101B091C0
:1023100012018093360190933701A0933801B09356
:1023200039018091070190910801A0910901B091B4
:102330000A0180933A0190933B01A0933C01B09332
:102340003D0182E391E0089580915601811102C020
:102350000E94450E8EE391E00E94E502882341F041
:102360008EE391E00E944F0E0E9471110C94C00107
:102370000C943D010E94400160E070E080E090E03C
:102380000E945C058091140190911501892B61F0E8
:102390006A9A729A0E94A4110E9454066A9A7298CC
:1023A000109215011092140180911601909117015D
:1023B000892B41F31092170110921601E3CF505868
:1023C000BB27AA270ED025C2EED130F0F3D120F0E2
:1023D00031F49F3F11F41EF4BEC10EF4E095E7FB0B
:1023E000B4C1E92F38D280F3BA17620773078407A4
:1023F000950718F071F49EF550C20EF4E0950B2E7F
:10240000BA2FA02D0B01B90190010C01CA01A00146
:102410001124FF27591B99F0593F50F4503E68F1A1
:102420001A16F040A22F232F342F4427585FF3CFE2
:10243000469537952795A795F0405395C9F77EF4B3
:102440001F16BA0B620B730B840BBAF09150A1F0FC
:10245000FF0FBB1F661F771F881FC2F70EC0BA0F82
:10246000621F731F841F48F4879577956795B7950A
:10247000F7959E3F08F0B3CF9395880F08F0992702
:10248000EE0F9795879508958ED158F080E891E0EA
:1024900009F49EEF8FD128F040E851E059F45EEF47
:1024A00009C059C1FAC1E92FE078D5D168F3092EE6
:1024B000052AC1F3261737074807590738F00E2EAB
:1024C00007F8E02569F0E025E0640AC0EF6307F84B
:1024D000009407FADB01B9019D01DC01CA01AD01DD
:1024E000EF9348D096D10AD05F91552331F02BED70
:1024F0003FE049E450FD49EC63CF0895DF93DD27C9
:10250000B92FBF7740E85FE31616170648075B0749
:1025100010F4D92FCDD19F938F937F936F937AD25D
:10252000EEE2F1E01BD175D12F913F914F915F9178
:10253000D2D1DD2349F09058A2EA2AED3FE049ECE0
:102540005FE3D0785D274DDFDF9163C1DAD008F417
:1025500081E0089537D1E3956DC12CD140F023D1AE
:1025600030F021F45F3F19F0F0C0511197C1F3C072
:1025700072D198F39923C9F35523B1F3951B550BE9
:10258000BB27AA2762177307840738F09F5F5F4F46
:10259000220F331F441FAA1FA9F333D00E2E3AF087
:1025A000E0E830D091505040E695001CCAF729D0A1
:1025B000FE2F27D0660F771F881FBB1F26173707F0
:1025C0004807AB07B0E809F0BB0B802DBF01FF2720
:1025D00093585F4F2AF09E3F510568F0B6C05EC128
:1025E0005F3FECF3983EDCF3869577956795B7955A
:1025F000F7959F5FC9F7880F911D9695879597F975
:102600000895E1E0660F771F881FBB1F62177307ED
:102610008407BA0720F0621B730B840BBA0BEE1F02
:1026200088F7E095089504D06894B11137C10895F2
:102630001AD188F09F5790F0B92F9927B751A0F081
:10264000D1F0660F771F881F991F1AF0BA95C9F746
:1026500012C0B13081F021D1B1E008951EC1672FC1
:10266000782F8827B85F39F0B93FCCF386957795F6
:102670006795B395D9F73EF49095809570956195DF
:102680007F4F8F4F9F4F0895E89409C097FB3EF40A
:1026900090958095709561957F4F8F4F9F4F9923AF
:1026A000A9F0F92F96E9BB279395F695879577952D
:1026B0006795B795F111F8CFFAF4BB0F11F460FFED
:1026C0001BC06F5F7F4F8F4F9F4F16C0882311F045
:1026D00096E911C0772321F09EE8872F762F05C059
:1026E000662371F096E8862F70E060E02AF09A95F4
:1026F000660F771F881FDAF7880F9695879597F9E9
:102700000895990F0008550FAA0BE0E8FEEF161682
:102710001706E807F907C0F012161306E407F507D5
:1027200098F0621B730B840B950B39F40A2661F049
:10273000232B242B252B21F408950A2609F4A140EC
:10274000A6958FEF811D811D089597F99F6780E8F9
:1027500070E060E008959FEF80EC0895DF93CF93E1
:102760001F930F93FF92EF92DF927B018C0168948D
:1027700005C0DA2EEF01AFD0FE01E894A5912591B6
:10278000359145915591AEF3EF012BDEFE01970196
:10279000A801DA9479F7DF90EF90FF900F911F91E5
:1027A000CF91DF91089500240A9416161706180693
:1027B0000906089500240A94121613061406050645
:1027C0000895C9CF50D0E8F3E894E0E0BB279F57C5
:1027D000F0F02AED3FE049EC06C0EE0FBB0F661F9C
:1027E000771F881F28F0B23A62077307840728F022
:1027F000B25A620B730B840BE3959A9572F780388B
:1028000030F49A95BB0F661F771F881FD2F7904848
:1028100008C1092E0394000C11F4882352F0BB0F59
:1028200040F4BF2B11F460FF04C06F5F7F4F8F4FE8
:102830009F4F0895EF93E0FF06C0A2EA2AED3FE024
:1028400049EC5FEBCEDDE5DF0F90039401FC90587F
:10285000EBE5F1E0F9C057FD9058440F551F59F0D2
:102860005F3F71F04795880F97FB991F61F09F3F7D
:1028700079F087950895121613061406551FF2CFA6
:102880004695F1DF08C0161617061806991FF1CFF6
:1028900086957105610508940895E894BB2766271D
:1028A0007727CB0197F908952CDF08F48FEF08956F
:1028B0009B01AC0160E070E080E89FE3AEC00BD00C
:1028C000A8CF71DF28F076DF18F0952309F03DCF0F
:1028D00042CF1124E3CFBFDFA0F3959FD1F3950F33
:1028E00050E0551F629FF001729FBB27F00DB11D94
:1028F000639FAA27F00DB11DAA1F649F6627B00D24
:10290000A11D661F829F2227B00DA11D621F739F0C
:10291000B00DA11D621F839FA00D611D221F749F1A
:102920003327A00D611D231F849F600D211D822F61
:10293000762F6A2F11249F5750408AF0E1F08823A8
:102940004AF0EE0FFF1FBB1F661F771F881F9150B5
:102950005040A9F79E3F510570F0F7CE9FCF5F3FE3
:10296000ECF3983EDCF3869577956795B795F795E8
:10297000E7959F5FC1F7FE2B880F911D9695879570
:1029800097F908959F931EDF0F9007FCEE5F52CFDB
:1029900011F40EF4E0CE43C066DFD0F39923D9F3EF
:1029A000CEF39F57550B87FF48D00024A0E640EA9E
:1029B000900180585695979528F4805C660F771F94
:1029C000881F20F026173707480730F4621B730B67
:1029D000840B202931294A2BA6951794079420258A
:1029E00031254A2758F7660F771F881F20F02617D2
:1029F0003707480730F4620B730B840B200D311D31
:102A0000411DA09581F7B901842F9158880F9695A3
:102A1000879508959B01AC0152CFAADDFACE9F3F66
:102A200031F0915020F4879577956795B795880F89
:102A3000911D9695879597F9089591505040660F8E
:102A4000771F881FD2F708959F938F937F936F937B
:102A5000FF93EF939B01AC0132DFEF91FF917EDE9C
:102A60002F913F914F915F912ACFEE0FFF1F05905D
:102A7000F491E02D0994BB274A3031F4992322F4D4
:102A8000BDE2909581959F4F0C947815BB272A3015
:102A900051F4992342F4BDE290958095709561952B
:102AA0007F4F8F4F9F4F0C945615BB27FA01A62FCF
:102AB0006217710581059105330B30FB66F0AA277B
:102AC000660F771F881F991FAA1FA21710F0A21B5D
:102AD00063953850A9F7A05DAA3308F0A95DA193CA
:102AE00036F7B111B1931082CA010C949115BB272E
:102AF000FB015527AA27880F991FAA1FA41710F0BA
:102B0000A41B83955051B9F7A05DAA3308F0A95DC5
:102B1000A193009779F7B111B1931192CB010C9465
:102B20009115DC01FC01672F71917723E1F7329752
:102B300004C07C916D9370836291AE17BF07C8F398
:062B40000895F894FFCF98
:102B460000E100000000080000C03F00E08A4400E9
:042B5600E08A4400CD
:00000001FF
