:100000000C9487010C94A4010C94A4010C94C701D6
:100010000C94A4010C94A4010C94A4010C94A401CC
:100020000C94A4010C94A4010C9453090C948D0914
:100030000C94A4010C94A4010C94A4010C94A401AC
:100040000C94A4010C94A4010C94A4010C94A4019C
:100050000C94A4010C94A4010C94A4010C94F5013B
:100060000C94A4010C94A4010C94A4010C94A4017C
:100070000C94A4010C94A4010C94A4010C94A4016C
:100080000C94A4010C94A4010C94A4010C94A4015C
:100090000C94A4010C94A4010C94A4010C94A4014C
:1000A0000C94A4010C94A4010C94A401FB08F30883
:1000B000EB08E308DB08D308CB08C308BB08B30888
:1000C000AB08A3089B0893088B0883087B08730878
:1000D0006B0863085B0853084B0843083B08330868
:1000E0002B0823081B0813080B080308FB07F3075A
:1000F000EB07E307DB07D307CB07C307BB07B30750
:10010000AB07A3079B0793078B0783077B0773073F
:100110006B0763075B0753074B0743073B0733072F
:100120002B0723071B0713070B070307FB06084AC8
:10013000D73B3BCE016E84BCBFFDC12F3D6C7431FB
:100140009ABD56833DDA3D00C77F11BED9E4BB4C52
:100150003E916BAAAABE000000803F05A84CCDB21C
:10016000D44EB93836A9020C50B9918688083CA6FD
:10017000AAAA2ABE000000803F005449434B210A2E
:100180000D000A0D00207C20006572726F72210A3A
:100190000D000001000029021200020000E60143E8
:1001A00000030000E2010401030904CE011202036E
:1001B0000904C6010603030904BC0108080334004E
:1001C00031003000000006034D0032000000120331
:1001D0004A002E0020004600690065006E006500A0
:1001E00000000403090409024300020100C03209AF
:1001F0000400000102020100052400100105240191
:1002000001010424020605240600010705820310EB
:10021000004009040100020A000000070503024033
:1002200000000705840240000012010002020000E5
:1002300010C0167A040001010203010001C112017D
:1002400080360181360A0D0020593A000A0D536F9D
:1002500075746820537461723A20583A0020593AF4
:10026000000A0D4E6F72746820537461723A205800
:100270003A000A0D54686574613A20000A0D593A33
:100280002000583A200056616C75657320696E2015
:1002900066756E63696F6E200A0D000A0D00206995
:1002A0003A0020593A0072656D6F76656420706F70
:1002B000696E743A20583A000A0D0046696E6973F7
:1002C000686564204C6F63616C697A696E672E2083
:1002D00044726F70706564204672616D65733A2078
:1002E000000A0D00207C20004D5F5769695F566150
:1002F0006C7565733A0A0D005374617274656420FD
:10030000746F204C6F63616C697A650A0D0011246B
:100310001FBECFEFDAE0DEBFCDBF11E0A0E0B1E05D
:10032000EEE9FCE202C005900D92A431B107D9F7C5
:1003300021E0A4E1B1E001C01D92A535B207E1F7CB
:100340000E9422120C944D160C9400006E9A76981E
:100350000E940906882321F089E891E00C94DC0AC8
:100360000895E1E6F0E080E880831082229A2A9ADC
:10037000219A229A4AE065E181E00E94850C0E9460
:10038000F00586E90E94710481E00C949B041F92A1
:100390000F920FB60F9211242F933F934F935F93B9
:1003A0006F937F938F939F93AF93BF93EF93FF933D
:1003B0006AE083E491E00E94DD0C992787FD909527
:1003C0009093170180931601FF91EF91BF91AF9128
:1003D0009F918F917F916F915F914F913F912F915D
:1003E0000F900FBE0F901F9018951F920F920FB68F
:1003F0000F9211242F933F934F935F936F937F93AB
:100400008F939F93AF93BF93EF93FF9381E090E01F
:1004100090931501809314018AE791E00E94DC0A11
:10042000FF91EF91BF91AF919F918F917F916F91CC
:100430005F914F913F912F910F900FBE0F901F90A2
:10044000189590934E0180934D01089580914D0130
:1004500090914E0108959093540180935301089513
:10046000809153019091540108959093500180938D
:100470004F01089580914F019091500108959093FC
:100480005201809351010895809151019091520140
:10049000089520E030E08091BC0087FD06C02F5F0A
:1004A0003F4F293E83E03807B1F781E0283E3340D3
:1004B00009F480E008958093BB0084E88093BC0039
:1004C0000E944902882319F08091B900887F08951D
:1004D000CF93C82F84EA8093BC000E9449028823EE
:1004E00061F08C2F880F0E945B02803229F484E92E
:1004F0008093BC0080E001C081E0CF9108950E940C
:10050000DD0B88E50E946802811102C080E0089539
:1005100080E30E945B028823C9F381E00E945B02B2
:100520008823A1F384E98093BC008FE39CE90197C1
:10053000F1F700C0000088E50E946802882331F3CB
:1005400080E00E945B02882309F380E00E945B0246
:100550008823E1F280E00E945B028823B9F280E008
:100560000E945B02882391F280E00E945B02882354
:1005700069F280E00E945B02882341F280E00E94E1
:100580005B02882319F280E90E945B02882309F448
:10059000BDCF84E98093BC008FE39CE90197F1F71C
:1005A00000C0000088E50E946802882309F4AECFED
:1005B00087E00E945B02882309F4A8CF80E00E94B4
:1005C0005B02882309F4A2CF81E40E945B028823A6
:1005D00009F49CCF84E98093BC008FE39CE90197E8
:1005E000F1F700C0000088E50E946802882309F442
:1005F0008DCF8AE10E945B02882309F487CF80E4D3
:100600000E945B02882309F481CF80E00E945B0294
:10061000882309F47BCF84E98093BC008FE39CE9B5
:100620000197F1F700C0000088E50E946802882366
:1006300009F46CCF83E30E945B02882309F466CF40
:1006400083E00E945B02882309F460CF84E98093F1
:10065000BC008FE39CE90197F1F700C0000088E53A
:100660000E946802882309F451CF80E30E945B0254
:10067000882309F44BCF88E00E945B02882309F4A9
:1006800045CF84E98093BC008FE39CE90197F1F7A3
:1006900000C0000081E00895CF93C82F84EA8093C2
:1006A000BC000E944902882369F08C2F880F8F5F5D
:1006B0000E945B02883429F484E98093BC0080E0C6
:1006C00001C081E0CF910895EF92FF920F931F93A5
:1006D000CF93DF93CDB7DEB760970FB6F894DEBF48
:1006E0000FBECDBF7C018E010F5F1F4F80E1F8016F
:1006F00011928A95E9F788E50E946802811102C08B
:1007000080E05EC086E30E945B028823C9F384E92F
:100710008093BC00F5E8FA95F1F7000088E50E94A7
:100720004C03882369F3F8019E01205F3F4F94EC4E
:100730009093BC008091BC0087FFFCCF8091BB00F0
:100740008193E217F307A1F784E88093BC008091BE
:10075000BC0087FFFCCF8091BB00888B84E980932D
:10076000BC00DE01149687016C91762F7073AD0189
:1007700042505109FA01808190E0F0E17F9F800DA5
:10078000911D1124F80191838083762F707C4F5F37
:100790005F4FFA01808190E0F4E07F9F800D911D12
:1007A0001124F801938382836F70862F90E09583E4
:1007B000848313960A5F1F4FA217B307A9F681E03F
:1007C00060960FB6F894DEBF0FBECDBFDF91CF911C
:1007D0001F910F91FF90EF90089584E98093BC00E2
:1007E0000895CF93DF9300D000D0CDB7DEB79A0144
:1007F000AB01909319018093180190938900809325
:100800008800BC0180E090E029833A834B835C83BD
:100810000E94EA1329813A814B815C810E94E11494
:100820000E94BE1370938B0060938A00E1E8F0E0B1
:10083000808180618083808188608083A0E8B0E0CF
:100840008C9182608C938C9181608C938C9180626E
:100850008C938C918F7E8C9380818B7F8083808121
:100860008260808380818E7F8083269A0F900F9094
:100870000F900F90DF91CF910895CF93DF9300D029
:1008800000D0CDB7DEB79B01AC016091180170912B
:10089000190180E090E029833A834B835C830E94B6
:1008A000EA1329813A814B815C810E94E1140E9404
:1008B000BE1370938B0060938A000F900F900F907F
:1008C0000F90DF91CF910895E1E8F0E080818B7F78
:1008D000808380818D7F808380818E7F8083269836
:1008E000089587BD85B5886085BD84B5826084BD67
:1008F00084B5816084BD84B58F7784BD84B58F7BDA
:1009000084BD84B58F7D84BD84B58F7E84BD85B55F
:10091000846085BD85B58D7F85BD85B5816085BDCC
:10092000089585B58B7F85BD85B58D7F85BD85B5E2
:100930008E7F85BD0895882339F080916E00816097
:1009400080936E007894089580916E008E7F8093DE
:100950006E000895CF93DF9300D000D0CDB7DEB7FF
:100960009A01AB0190931B0180931A019093970019
:1009700080939600BC0180E090E029833A834B830A
:100980005C830E94EA1329813A814B815C810E9439
:10099000E1140E94BE137093990060939800E1E9FE
:1009A000F0E0808180618083808188608083A0E91D
:1009B000B0E08C9182608C938C918E7F8C938C9123
:1009C00080688C938C918F7B8C9380818B7F8083CC
:1009D00080818260808380818E7F80833E9A0F90A9
:1009E0000F900F900F90DF91CF910895CF93DF93E9
:1009F00000D000D0CDB7DEB79B01AC0160911A01E9
:100A000070911B0180E090E029833A834B835C83E3
:100A10000E94EA1329813A814B815C810E94E11492
:100A20000E94BE1370939900609398000F900F90EE
:100A30000F900F90DF91CF910895E1E9F0E0808170
:100A40008B7F808380818D7F808380818E7F808378
:100A50003E98089508950895CF92DF92EF92FF9205
:100A600069017A01BA01A90180E091E00E94F103D5
:100A7000B701A60180E091E00E94AA040E9444020E
:100A800060E070E0CB010E9444156B017C0182E0C4
:100A900090E00E94210220E030E0A901C701B601E8
:100AA0000E948A120E94E1154E979CF460E070E06B
:100AB000CB010E94E1154E9764F40E9464040E94E9
:100AC0001D0580E090E0FF90EF90DF90CF900C94B8
:100AD0002102FF90EF90DF90CF900895CF93DF93A6
:100AE000EA01AB01BC0180E094E00E94F103CD2B50
:100AF00011F4289A01C02898DF91CF9108950C94A1
:100B00006404CF93DF93EA01AB01BC0180E094E081
:100B10000E94AA04CD2B11F4289A01C02898DF91D5
:100B2000CF9108950C941D05CF93DF93ACE7B0E00F
:100B30008C918F778C938C9180648C93EAE7F0E0B2
:100B400080818460808380818260808380818160F5
:100B50008083CEE7D0E08881816088838081806255
:100B60008083CBE7D0E088818F7D88838C918B7FD9
:100B70008C938C918D7F8C938C918E7F8C938081C4
:100B800080688083808180648083DF91CF91089525
:100B9000892B39F080917A00886080937A0078946C
:100BA000089580917A00877F80937A000895EAE71C
:100BB000F0E090819F779083ACE7B0E09C918770E4
:100BC000987F892B8C9380818068808308958091A1
:100BD0007C00877008958091E80080FFFCCF089525
:100BE00081E08093D70080EA8093D80082E189BDBC
:100BF00009B400FEFDCF80E98093D8001092E00098
:100C000010921F0110921C018CE08093E2007894F6
:100C1000089580911F0108959FB7F89480911F0156
:100C2000882339F083E08093E9008091E80085FD16
:100C300003C09FBF8FEF08958091F1002091E800DD
:100C400025FD03C02BE62093E8009FBF08959FB7C2
:100C5000F89480911F01882331F083E08093E900AC
:100C60008091F20001C080E09FBF089580911F0134
:100C7000882371F08FB7F89493E09093E9002BE606
:100C80009091E80095FF03C02093E800F9CF8FBF53
:100C9000089590911F01992371F09FB7F89424E073
:100CA0002093E90020911D01222349F02091E800C2
:100CB00025FD03C09FBF8FEF089510921D01209165
:100CC000E400275E34E04091E80045FD12C09FBF7C
:100CD0009091E400921304C081E080931D01EBCF5A
:100CE00090911F01992339F39FB7F8943093E9004D
:100CF000EACF8093F1008091E80085FD03C08AE38C
:100D00008093E80085E080931E019FBF80E00895F6
:100D100090911F019923D1F09FB7F89424E020937C
:100D2000E9002091E80025FD02C09FBF0FC080931D
:100D3000F1008091E80085FD03C08AE38093E8001C
:100D400085E080931E019FBF80E008958FEF089596
:100D5000EF92FF921F93CF93DF937C01CB01209101
:100D60001F01222371F0AFB7F89424E02093E9002B
:100D700020911D01222349F02091E80025FD03C0A8
:100D8000AFBF8FEF42C210921D01B4E0C0E4DAE3BE
:100D900015E0009709F437C22091E400275E3091F6
:100DA000E80035FD12C0AFBF3091E400321304C03B
:100DB00081E080931D01E5CF30911F01332309F3BA
:100DC000AFB7F894B093E900EACF2091F2004C2F2E
:100DD000421B242F30E08217930708F4482F841B0E
:100DE000910950E04134510508F0FDC14A5A5F4F66
:100DF000FA010C94DB15F70120812093F100970193
:100E00002F5F3F4F7901F70120812093F100970177
:100E10002F5F3F4F7901F70120812093F100970167
:100E20002F5F3F4F7901F70120812093F100970157
:100E30002F5F3F4F7901F70120812093F100970147
:100E40002F5F3F4F7901F70120812093F100970137
:100E50002F5F3F4F7901F70120812093F100970127
:100E60002F5F3F4F7901F70120812093F100970117
:100E70002F5F3F4F7901F70120812093F100970107
:100E80002F5F3F4F7901F70120812093F1009701F7
:100E90002F5F3F4F7901F70120812093F1009701E7
:100EA0002F5F3F4F7901F70120812093F1009701D7
:100EB0002F5F3F4F7901F70120812093F1009701C7
:100EC0002F5F3F4F7901F70120812093F1009701B7
:100ED0002F5F3F4F7901F70120812093F1009701A7
:100EE0002F5F3F4F7901F70120812093F100970197
:100EF0002F5F3F4F7901F70120812093F100970187
:100F00002F5F3F4F7901F70120812093F100970176
:100F10002F5F3F4F7901F70120812093F100970166
:100F20002F5F3F4F7901F70120812093F100970156
:100F30002F5F3F4F7901F70120812093F100970146
:100F40002F5F3F4F7901F70120812093F100970136
:100F50002F5F3F4F7901F70120812093F100970126
:100F60002F5F3F4F7901F70120812093F100970116
:100F70002F5F3F4F7901F70120812093F100970106
:100F80002F5F3F4F7901F70120812093F1009701F6
:100F90002F5F3F4F7901F70120812093F1009701E6
:100FA0002F5F3F4F7901F70120812093F1009701D6
:100FB0002F5F3F4F7901F70120812093F1009701C6
:100FC0002F5F3F4F7901F70120812093F1009701B6
:100FD0002F5F3F4F7901F70120812093F1009701A6
:100FE0002F5F3F4F7901F70120812093F100970196
:100FF0002F5F3F4F7901F70120812093F100970186
:101000002F5F3F4F7901F70120812093F100970175
:101010002F5F3F4F7901F70120812093F100970165
:101020002F5F3F4F7901F70120812093F100970155
:101030002F5F3F4F7901F70120812093F100970145
:101040002F5F3F4F7901F70120812093F100970135
:101050002F5F3F4F7901F70120812093F100970125
:101060002F5F3F4F7901F70120812093F100970115
:101070002F5F3F4F7901F70120812093F100970105
:101080002F5F3F4F7901F70120812093F1009701F5
:101090002F5F3F4F7901F70120812093F1009701E5
:1010A0002F5F3F4F7901F70120812093F1009701D5
:1010B0002F5F3F4F7901F70120812093F1009701C5
:1010C0002F5F3F4F7901F70120812093F1009701B5
:1010D0002F5F3F4F7901F70120812093F1009701A5
:1010E0002F5F3F4F7901F70120812093F100970195
:1010F0002F5F3F4F7901F70120812093F100970185
:101100002F5F3F4F7901F70120812093F100970174
:101110002F5F3F4F7901F70120812093F100970164
:101120002F5F3F4F7901F70120812093F100970154
:101130002F5F3F4F7901F70120812093F100970144
:101140002F5F3F4F7901F70120812093F100970134
:101150002F5F3F4F7901F70120812093F100970124
:101160002F5F3F4F7901F70120812093F100970114
:101170002F5F3F4F7901F70120812093F100970104
:101180002F5F3F4F7901F70120812093F1009701F4
:101190002F5F3F4F7901F70120812093F1009701E4
:1011A0002F5F3F4F7901F70120812093F1009701D4
:1011B0002F5F3F4F7901F70120812093F1009701C4
:1011C0002F5F3F4F7901F70120812093F1009701B4
:1011D0002F5F3F4F7901F70120812093F1009701A4
:1011E0002F5F3F4F7901F70120812093F100970194
:1011F0002F5F3F4F79012091E80025FFD093E80051
:1012000010931E01C6CDAFBF80E0DF91CF911F913B
:10121000FF90EF9008958FB7F89490911E01992355
:1012200041F094E09093E9009AE39093E8001092E3
:101230001E018FBF089580910401089580910501DA
:10124000089580910601089580911C0108959FB72B
:10125000F89420911F01222339F022E02093E90025
:101260003091E80035FD03C09FBF8FEF089531EA4C
:101270003093F10030E23093F1001092F1001092BF
:10128000F1001092F1001092F1002093F100109201
:10129000F1008093F1001092F1008AE38093E8005E
:1012A0009FBF80E008951F920F920FB60F921124F6
:1012B0008F939F938091E1001092E10083FF11C012
:1012C0001092E90091E09093EB001092EC0092E113
:1012D0009093ED0098E09093F00010921F0110920F
:1012E0001C0182FF13C080911F01882379F0809137
:1012F0001E01882359F0815080931E01811106C080
:1013000084E08093E9008AE38093E8009F918F91C5
:101310000F900FBE0F901F9018951F920F920FB64F
:101320000F921124EF92FF920F931F932F933F93ED
:101330004F935F936F937F938F939F93AF93BF93DD
:10134000EF93FF93CF93DF931F92CDB7DEB7109249
:10135000E9008091E80083FF14C19091F100809131
:10136000F1003091F1002091F100E32EF12CF22AEE
:101370000091F1002091F10010E0122B2091F1007A
:101380006091F10032EF3093E800863009F046C0FA
:1013900036E082E991E0FC01459154914E155F05DC
:1013A00039F4FC013296459154914017510721F0D0
:1013B0000796315081F7E5C0FC0134964591549170
:1013C000FC013696849130E0362B2F3F310519F021
:1013D00010F02FEF30E0281708F4822F3EEF9091A5
:1013E000E800292F2570D9F392FDCEC0982F8131C6
:1013F00008F090E1FA01292F222331F064916093E3
:10140000F10021503196F8CF490F511D891B3093BF
:10141000E8008111E4CF903111F3B6C0853051F46A
:101420008EEF8093E8000E94EB058E2D80688093FC
:10143000E300AAC0893059F5911180C0E0921F01E4
:1014400010921C0110921E018EEF8093E80041E083
:101450008BE392E04093E9009C012F5F3F4FFC013A
:1014600054915093EB00552359F0F90124912093A6
:10147000EC009C012D5F3F4F319684918093ED00ED
:101480004F5F453011F0C901E5CF8EE175C088305E
:1014900051F4903809F052C00E94EB0580911F0171
:1014A0008093F10047C0813279F4913A09F046C047
:1014B0000E94EB05E0E0F1E081918093F10081E092
:1014C000E730F807C9F736C0803299F49132B1F5A8
:1014D0008091E80082FFFCCFE0E0F1E08091F10034
:1014E000819381E0E730F807C9F78BEF8093E8003C
:1014F00021C0823241F4913209F043C0E0921C01D4
:101500000E94EB0517C0811119C099830E94EB0559
:101510009981923851F40093E9008091EB0085FBAA
:10152000882780F91092E90001C080E08093F100E3
:101530001092F1008EEF8093E80026C0282F2D7FB7
:101540002130F9F49230E9F4EF28D9F40F779FEFC6
:10155000900F9430B0F49EEF9093E8000093E90070
:10156000833079F089E18093EB0081E090E0002EF8
:1015700001C0880F0A94EAF78093EA001092EA000B
:1015800003C081E28093EB000F90DF91CF91FF9138
:10159000EF91BF91AF919F918F917F916F915F91EB
:1015A0004F913F912F911F910F91FF90EF900F90CE
:1015B0000FBE0F901F9018951F93CF93DF93EC01F0
:1015C000FE011491112351F01A3019F48DE00E949C
:1015D0004906812F0E9449062196F2CFDF91CF91D3
:1015E0001F9108958A3010F490E301C097E3890FAA
:1015F0000C944906CF93C82F82958F700E94F20AEF
:101600008C2F8F70CF910C94F20ACF93C82F892F13
:101610000E94FA0A8C2FCF910C94FA0A0C94FA0AC1
:10162000EF92FF920F931F93CF93DF93CDB7DEB767
:1016300027970FB6F894DEBF0FBECDBF8E010F5FA8
:101640001F4F27E0F80111922A95E9F74AE0B80107
:101650000E94E7157E01F8E0EF0EF11CF801819180
:101660008F0181110E9449060E151F05B9F72796B3
:101670000FB6F894DEBF0FBECDBFDF91CF911F91A3
:101680000F91FF90EF900895EF92FF920F931F93A9
:10169000CF93DF9300D000D000D0CDB7DEB78E015E
:1016A0000F5F1F4F26E0F80111922A95E9F74AE0F3
:1016B000B8010E9423167E01F6E0EF0EF11CF8013E
:1016C00081918F0181110E9449060E151F05B9F7FE
:1016D00026960FB6F894DEBF0FBECDBFDF91CF9137
:1016E0001F910F91FF90EF900895EF92FF920F934B
:1016F0001F93CF93DF93CDB7DEB72B970FB6F89438
:10170000DEBF0FBECDBF8E010F5F1F4F2BE0F80174
:1017100011922A95E9F72AE0A8010E94F2157E01AC
:10172000FCE0EF0EF11CF80181918F0181110E9404
:1017300049060E151F05B9F72B960FB6F894DEBFB4
:101740000FBECDBFDF91CF911F910F91FF90EF9012
:101750000895EF92FF920F931F93CF93DF93CDB72E
:10176000DEB72B970FB6F894DEBF0FBECDBF8E014C
:101770000F5F1F4F2BE0F80111922A95E9F72AE03D
:10178000A8010E9401167E01FBE0EF0EF11CF8019A
:1017900081918F0181110E9449060E151F05B9F72D
:1017A0002B960FB6F894DEBF0FBECDBFDF91CF9161
:1017B0001F910F91FF90EF900895589A599A5A9A55
:1017C0008CE08093B800E9E6F0E08081806280835D
:1017D00080818F7E8083EA9A7894089584E880934C
:1017E000BC008091BC0087FFFCCF8091BB000895B6
:1017F00084E98093BC00089520E030E08091BC0033
:1018000087FD06C02F5F3F4F293E83E03807B1F7C1
:1018100081E0283E334009F480E008958093BB00C6
:1018200084E88093BC000E94FC0B882321F0809107
:10183000B900887F089580E008951F93CF93DF93C8
:101840001F92CDB7DEB7182F84EA8093BC0069835E
:101850000E94FC0B6981811104C094E99093BC0043
:1018600014C0812F880F662331F08F5F0E940E0C09
:10187000883451F404C00E940E0C803229F484E9AB
:101880008093BC0080E001C081E00F90DF91CF9198
:101890001F910895CF93DF93C82FD62F60E00E9449
:1018A0001D0C882391F08D2F0E940E0C882369F067
:1018B00084E98093BC0061E08C2F0E941D0C88237A
:1018C00021F0DF91CF910C94EE0B80E0DF91CF916E
:1018D0000895CF93DF93D62FC42F60E00E941D0C94
:1018E000811102C080E00EC08D2F0E940E0C882353
:1018F000C9F38C2F0E940E0C8823A1F384E98093F6
:10190000BC0081E0DF91CF910895CF93DF9300D0A9
:101910001F92CDB7DEB74B836A8389830E94DD0BAC
:1019200094EA9093BC0089816A814B819091BC00BC
:1019300097FFFCCF90E59093BB0094E89093BC0098
:101940009091BC0097FFFCCF9091B900987F9032A6
:1019500029F484E98093BC0080E029C091E0909351
:10196000BB0094E89093BC009091BC0097FFFCCF23
:101970008093BB0084E88093BC008091BC0087FF0B
:10198000FCCF6093BB0084E88093BC008091BC00D6
:1019900087FFFCCF4093BB0084E88093BC0080911C
:1019A000BC0087FFFCCF84E98093BC0081E00F90EE
:1019B0000F900F90DF91CF91089524EA2093BC00FF
:1019C0002091BC0027FFFCCF21E52093BB0024E839
:1019D0002093BC002091BC0027FFFCCF2091B900D0
:1019E000287F2834A9F024EC2093BC002091BC006F
:1019F00027FFFCCF2091BB0026130AC0FC0120E08A
:101A000030E0772767FD70956150710944EC0EC096
:101A100084E98093BC0080E008955091BC0057FF9A
:101A2000FCCF5091BB0051932F5F3F4F26173707D4
:101A30001CF44093BC00F1CF44E84093BC004091BB
:101A4000BC0047FFFCCF4091BB00FC01E20FF31F3D
:101A5000408384E98093BC0081E00895F89494EA7F
:101A60009093BC009091BC0097FFFCCF90E59093C1
:101A7000BB0094E89093BC009091BC0097FFFCCF12
:101A80009091B900987F903231F484E98093BC0042
:101A9000789480E0089593E09093BB0094E890934D
:101AA000BC009091BC0097FFFCCF8093BB0084E802
:101AB0008093BC008091BC0087FFFCCFFB015527C1
:101AC00047FD509524E8CF01861B970B8417950797
:101AD00054F481918093BB002093BC008091BC00A2
:101AE00087FFFCCFF0CF84E98093BC00789481E03D
:101AF00008950E947F02882321F081E080934001B5
:101B000008950C94A6012F923F924F925F926F928C
:101B10007F928F929F92AF92BF92CF92DF92EF927D
:101B2000FF920F931F93CF93DF93CDB7DEB7C456C9
:101B3000D1090FB6F894DEBF0FBECDBF8C01B0E265
:101B4000AB2EB1E0BB2E7C01612C712CC12CD12CB1
:101B500088248394912CD7018D919C918F3F934041
:101B600081F5F701828193818F3F934051F5D50133
:101B70008D929C92BFEF6B1A7B0A0E940906882304
:101B800019F186EA92E00E94DC0AF70180819181D6
:101B90000E94100B82EA92E00E94DC0AD7011296A2
:101BA0008D919C9113970E94100B8EE992E00E94F8
:101BB000DC0AC6010E94100B8BE992E00E94DC0A4D
:101BC00003C0F50111821082FFEFCF1ADF0A26E071
:101BD000E20EF11C32E0A30EB11C44E0C416D104A5
:101BE00009F0B9CF52E0651671040CF08FC3109262
:101BF000420110924101CE01019669969FAF8EAFCE
:101C000069972D961FAF0EAF2D97A0E2B1E06196B8
:101C1000BFAFAEAF6197A12CB12C6C961FAE6C9785
:101C20006D961FAE6D976E961FAE6E976F961FAE38
:101C30006F9727961FAF0EAF2797A0E2B1E065968A
:101C4000BFAFAEAF659763961FAE1EAE6397812C94
:101C5000912CA0968FAEA097A1969FAEA197A814A5
:101C6000B90409F491C06196EEADFFAD6197808132
:101C70009181892B09F088C06596AEADBFAD65979F
:101C80008D919C91892B09F07FC02D96EEADFFAD13
:101C90002D97608171812796AEADBFAD27978D914D
:101CA0009C91681B790B80E090E00E94EA132B0165
:101CB0003C012D96EEADFFAD2D9762817381279685
:101CC000AEADBFAD279712968D919C911397681B6F
:101CD000790B80E090E00E94EA136B017C01A30184
:101CE0009201C301B2010E94E1142B013C01A70142
:101CF0009601C701B6010E94E1149B01AC01C3012A
:101D0000B2010E948A120E944E156B017C016C96F2
:101D10002FAD6C976D963FAD6D976E964FAD6E97EC
:101D20006F965FAD6F970E94D61418163CF0A09680
:101D30002FAEA097A1963FAEA19710C02B96BFAE35
:101D4000AEAE2B976C96CFAE6C976D96DFAE6D975F
:101D50006E96EFAE6E976F96FFAE6F97C601D70186
:101D60006996EEADFFAD699763962EAD3FAD639773
:101D7000E20FF31F80839183A283B383A0962FACDD
:101D8000A097A1963FACA1973FEF831A930A65965F
:101D90004EAD5FAD65974E5F5F4F65965FAF4EAFDF
:101DA000659763968EAD9FAD6397049663969FAFDC
:101DB0008EAF63972796AEADBFAD27971696279641
:101DC000BFAFAEAF2797B4E08B16910409F041CFB7
:101DD000EFEFAE1ABE0A61962EAD3FAD61972E5F52
:101DE0003F4F61963FAF2EAF619769964EAD5FADA5
:101DF0006997405F5F4F69965FAF4EAF69972D96C9
:101E00008EAD9FAD2D9706962D969FAF8EAF2D97D9
:101E100094E0A916B10409F00CCF20E030E080E096
:101E200090E02816390679F0009769F0F901EE0F75
:101E3000FF1F41E450E04C0F5D1FE40FF51F91833D
:101E400080832F5F3F4F01968430910551F7239691
:101E5000CEACDFAC23972596EEACFFAC25972B9646
:101E6000AEADBFAD2B97AA0FBB1FAA0FBB1FFD01C5
:101E7000EC0DFD1DEE0FFF1FEE0FFF1F81E090E048
:101E80008C0F9D1FE80FF91FAE0DBF1DAA0FBB1FC2
:101E9000AA0FBB1FA80FB91F2D913D914D915C91C9
:101EA00060817181828193810E948A124B015C0161
:101EB000C101880F991F880F991FFC01EC0DFD1DB2
:101EC000EE0FFF1FEE0FFF1FA1E0B0E0AC0FBD1F34
:101ED000EA0FFB1FDC01AE0DBF1DAA0FBB1FAA0F2F
:101EE000BB1F21E030E02C0F3D1FA20FB31F2D912F
:101EF0003D914D915C9160817181828193810E94BD
:101F00008A129B01AC01C501B4010E94D6141816B7
:101F100064F42A969FAD2A972B968FAD2B972B961C
:101F20003FAE2EAE2B97292E382E46E02B968EAD47
:101F30009FAD2B97489F9001499F300D1124D801E8
:101F4000A20FB31F6196BFAFAEAF61974D905C908B
:101F5000429DC001439D900D1124F801E80FF91F27
:101F60006396FFAFEEAF639760807180A9014E5F0B
:101F70005F4F400F511F2B965FAF4EAF2B97DA018B
:101F80000D90BC91A02D2796BFAFAEAF27971C0137
:101F9000B2E02B0E311C200E311EF10100811181A7
:101FA000B2016619770980E090E00E94EA139B0174
:101FB000AC0127966EAD7FAD2797601B710B80E05B
:101FC00090E0A2962FAFA297A3963FAFA397A496B7
:101FD0004FAFA497A5965FAFA5970E94EA13A2966C
:101FE0002FADA297A3963FADA397A4964FADA4970C
:101FF000A5965FADA5970E94FD122BED3FE049EC41
:102000005FE30E9489126B017C010E9450136B9662
:102010006CAF7DAF8EAF9FAF6B97C701B6010E94CB
:1020200044154B015C019B01AC01505867962CAFE5
:102030003DAF4EAF5FAF6797B301640D751D7695E9
:10204000679580E090E00E94EA1320E030E040ECE9
:1020500053E40E9489122F966CAF7DAF8EAF9FAF75
:102060002F9727966EAD7FAD2797600F711F7695DE
:10207000679580E090E00E94EA1320E030E0A9013B
:102080000E94891229966CAF7DAF8EAF9FAF2997C2
:102090002BE734E14EE65FE360910B0170910C0198
:1020A00080910D0190910E010E94E1142B013C01E1
:1020B0002F962CAD3DAD4EAD5FAD2F97C501B40150
:1020C0000E94E1144B015C0129962CAD3DAD4EAD53
:1020D0005FAD299767966CAD7DAD8EAD9FAD67976F
:1020E0000E94E1149B01AC01C501B4010E94891258
:1020F00028E23CE54FE85DE30E94E1149B01AC015E
:10210000C301B2010E948A1260930B0170930C010B
:1021100080930D0190930E012BE734E14EE65FE3CF
:1021200060910F0170911001809111019091120145
:102130000E94E1144B015C012F962CAD3DAD4EADDC
:102140005FAD2F9767966CAD7DAD8EAD9FAD6797F8
:102150000E94E1142B013C0129962CAD3DAD4EAD02
:102160005FAD29976B966CAD7DAD8EAD9FAD6B97D6
:102170000E94E1149B01AC01C301B2010E948912CB
:1021800028E23CE54FE85DE30E94E1149B01AC01CD
:10219000C501B4010E948A1260930F01709310016F
:1021A0008093110190931201D701C601B05880931A
:1021B000070190930801A0930901B0930A010E94BE
:1021C0000906882309F4ABC086E892E00E94DC0A85
:1021D00082E892E00E94DC0A20E030E048EC52E421
:1021E0002F966CAD7DAD8EAD9FAD2F970E94E11403
:1021F0000E94B913CB010E94100B8CE792E00E9461
:10220000DC0A20E030E048EC52E429966CAD7DAD6C
:102210008EAD9FAD29970E94E1140E94B913CB01A6
:102220000E94100B82E792E00E94DC0A20E030E07E
:1022300048EC52E4C701B6010E94E1140E94B913B0
:10224000CB010E94100B81E692E00E94DC0A6196AD
:10225000AEADBFAD61978D919C9114E6FC011E9FC0
:10226000C0011F9F900D11240E94100B8DE592E07C
:102270000E94DC0A2B96AEADBFAD2B978D919C9141
:10228000FC011E9FC0011F9F900D11240E94100B86
:102290008CE492E00E94DC0A6396AEADBFAD63971A
:1022A0008D919C91FC011E9FC0011F9F900D1124D8
:1022B0000E94100B88E492E00E94DC0AD1018D910B
:1022C0009C91FC011E9FC0011F9F900D11240E9434
:1022D000100B85E492E0CC59DF4F0FB6F894DEBFC7
:1022E0000FBECDBFDF91CF911F910F91FF90EF9067
:1022F000DF90CF90BF90AF909F908F907F906F9026
:102300005F904F903F902F900C94DC0A8091410198
:102310009091420101969093420180934101CC59E2
:10232000DF4F0FB6F894DEBF0FBECDBFDF91CF9168
:102330001F910F91FF90EF90DF90CF90BF90AF90E3
:102340009F908F907F906F905F904F903F902F90D5
:1023500008950F931F93CF93DF93CDB7DEB72C97DC
:102360000FB6F894DEBF0FBECDBF0E9409068823CA
:1023700021F088EF92E00E94DC0A809140018111F7
:1023800002C00E94790D88E291E00E9464038823D4
:10239000B9F10E9409068823C1F088EE92E00E94FC
:1023A000DC0A08E211E0F801819191918F010E940D
:1023B000100B84EE92E00E94DC0AF1E000341F076B
:1023C00091F781EE92E00E94DC0A88E291E00E949F
:1023D000830DCE0101960E943F020E9409068823C8
:1023E00089F08BEB92E00E94DC0A80914101909190
:1023F00042010E94100B88EB92E00E94DC0A02C0AE
:102400000E94A6012C960FB6F894DEBF0FBECDBF7A
:10241000DF91CF911F910F910895CF93DF93CDB7A7
:10242000DEB72C970FB6F894DEBF0FBECDBFCE013E
:1024300001962C960FB6F894DEBF0FBECDBFDF918C
:10244000CF9108950E94B10140E050E060E070E05B
:1024500080E89FE30E946E0540E050E060E070E09D
:1024600080E89FE30E9481058091140190911501FD
:10247000892B09F442C06A9A72980E94A9110E949D
:102480000906882311F10E9444028C01C0E0D0E0CB
:10249000F80161917191819191918F0120E030E07B
:1024A0004AE754E40E94E1140E94B913CB010E9450
:1024B000100B85E891E00E94DC0A2196C330D1051B
:1024C00039F782E891E00E94DC0A0E944402FC0194
:1024D00060817181828193810E94B913772767FDA2
:1024E000709543E084E10E942E0D811102C00E948C
:1024F000A60110921501109214018091160190917D
:102500001701892B09F4B0CF109217011092160110
:10251000ABCF5058BB27AA270ED0FDC1C6D130F093
:10252000CBD120F031F49F3F11F41EF496C10EF48C
:10253000E095E7FB8CC1E92F10D280F3BA17620750
:1025400073078407950718F071F49EF528C20EF4FE
:10255000E0950B2EBA2FA02D0B01B90190010C01B3
:10256000CA01A0011124FF27591B99F0593F50F4CB
:10257000503E68F11A16F040A22F232F342F442723
:10258000585FF3CF469537952795A795F04053951B
:10259000C9F77EF41F16BA0B620B730B840BBAF0EB
:1025A0009150A1F0FF0FBB1F661F771F881FC2F756
:1025B0000EC0BA0F621F731F841F48F4879577956A
:1025C0006795B795F7959E3F08F0B3CF9395880F21
:1025D00008F09927EE0F97958795089566D158F0E2
:1025E00080E891E009F49EEF67D128F040E851E0DF
:1025F00059F45EEF09C031C1D2C1E92FE078ADD105
:1026000068F3092E052AC1F326173707480759072B
:1026100038F00E2E07F8E02569F0E025E0640AC0E6
:10262000EF6307F8009407FADB01B9019D01DC01B3
:10263000CA01AD01EF9344D06ED10AD05F9155230A
:1026400031F02BED3FE049E450FD49EC63CF0895B4
:10265000DF93DD27B92FBF7740E85FE31616170633
:1026600048075B0710F4D92FA5D19F938F937F93D1
:102670006F9352D2EEE2F1E0F3D04DD12F913F9122
:102680004F915F91AAD1DD2349F09058A2EA2AED3B
:102690003FE049EC5FE3D0785D274DDFDF913BC140
:1026A00013D1E39549C108D140F0FFD030F021F4B7
:1026B0005F3F19F0CCC0511173C1CFC04ED198F318
:1026C0009923C9F35523B1F3951B550BBB27AA27B3
:1026D00062177307840738F09F5F5F4F220F331F25
:1026E000441FAA1FA9F333D00E2E3AF0E0E830D0F1
:1026F00091505040E695001CCAF729D0FE2F27D0F4
:10270000660F771F881FBB1F261737074807AB07C1
:10271000B0E809F0BB0B802DBF01FF2793585F4F36
:102720002AF09E3F510568F092C03AC15F3FECF33A
:10273000983EDCF3869577956795B795F7959F5FFB
:10274000C9F7880F911D9695879597F90895E1E04F
:10275000660F771F881FBB1F621773078407BA07AE
:1027600020F0621B730B840BBA0BEE1F88F7E09509
:10277000089504D06894B11113C10895F6D088F07B
:102780009F5790F0B92F9927B751A0F0D1F0660F5D
:10279000771F881F991F1AF0BA95C9F712C0B13078
:1027A00081F0FDD0B1E00895FAC0672F782F882717
:1027B000B85F39F0B93FCCF3869577956795B395B7
:1027C000D9F73EF490958095709561957F4F8F4F26
:1027D0009F4F0895E89409C097FB3EF4909580952B
:1027E000709561957F4F8F4F9F4F9923A9F0F92FD7
:1027F00096E9BB279395F695879577956795B79555
:10280000F111F8CFFAF4BB0F11F460FF1BC06F5F3A
:102810007F4F8F4F9F4F16C0882311F096E911C04C
:10282000772321F09EE8872F762F05C0662371F06D
:1028300096E8862F70E060E02AF09A95660F771F81
:10284000881FDAF7880F9695879597F9089597F975
:102850009F6780E870E060E008959FEF80EC089546
:10286000DF93CF931F930F93FF92EF92DF927B0141
:102870008C01689405C0DA2EEF01AFD0FE01E89418
:10288000A5912591359145915591AEF3EF0153DE18
:10289000FE019701A801DA9479F7DF90EF90FF909D
:1028A0000F911F91CF91DF91089500240A9416167D
:1028B000170618060906089500240A94121613062E
:1028C000140605060895C9CF50D0E8F3E894E0E077
:1028D000BB279F57F0F02AED3FE049EC06C0EE0F12
:1028E000BB0F661F771F881F28F0B23A6207730775
:1028F000840728F0B25A620B730B840BE3959A9508
:1029000072F7803830F49A95BB0F661F771F881FC7
:10291000D2F790482CC1092E0394000C11F488239F
:1029200052F0BB0F40F4BF2B11F460FF04C06F5F87
:102930007F4F8F4F9F4F0895EF93E0FF06C0A2EAAD
:102940002AED3FE049EC5FEBF6DDE5DF0F90039405
:1029500001FC9058EBE5F1E01DC157FD9058440F84
:10296000551F59F05F3F71F04795880F97FB991FEE
:1029700061F09F3F79F087950895121613061406AB
:10298000551FF2CF4695F1DF08C016161706180638
:10299000991FF1CF86957105610508940895E89413
:1029A000BB2766277727CB0197F90895BAD008F49B
:1029B0008FEF08959B01AC0160E070E080E89FE339
:1029C000AEC00BD0A8CF71DF28F076DF18F09523CA
:1029D00009F03DCF42CF1124E3CFBFDFA0F3959F95
:1029E000D1F3950F50E0551F629FF001729FBB27F6
:1029F000F00DB11D639FAA27F00DB11DAA1F649FA2
:102A00006627B00DA11D661F829F2227B00DA11D54
:102A1000621F739FB00DA11D621F839FA00D611DDA
:102A2000221F749F3327A00D611D231F849F600DFB
:102A3000211D822F762F6A2F11249F5750408AF034
:102A4000E1F088234AF0EE0FFF1FBB1F661F771FC0
:102A5000881F91505040A9F79E3F510570F0F7CE66
:102A60009FCF5F3FECF3983EDCF3869577956795B3
:102A7000B795F795E7959F5FC1F7FE2B880F911DDE
:102A80009695879597F908959F931EDF0F9007FC01
:102A9000EE5F52CF11F40EF4E0CE67C066DFD0F3E4
:102AA0009923D9F3CEF39F57550B87FF6CD00024A1
:102AB000A0E640EA900180585695979528F4805CEE
:102AC000660F771F881F20F026173707480730F456
:102AD000621B730B840B202931294A2BA69517946E
:102AE0000794202531254A2758F7660F771F881F3E
:102AF00020F026173707480730F4620B730B840B5E
:102B0000200D311D411DA09581F7B901842F9158E9
:102B1000880F9695879508959B01AC0152CFCEDD25
:102B2000FACE990F0008550FAA0BE0E8FEEF161633
:102B30001706E807F907C0F012161306E407F507B1
:102B400098F0621B730B840B950B39F40A2661F025
:102B5000232B242B252B21F408950A2609F4A140C8
:102B6000A6958FEF811D811D08959F3F31F09150F3
:102B700020F4879577956795B795880F911D969561
:102B8000879597F9089591505040660F771F881FD9
:102B9000D2F708959F938F937F936F93FF93EF9353
:102BA0009B01AC010EDFEF91FF915ADE2F913F9117
:102BB0004F915F9106CFEE0FFF1F0590F491E02D2E
:102BC000099497FF03C09195819591090895BB27BA
:102BD0004A3031F4992322F4BDE2909581959F4FBC
:102BE0000C942416BB272A3051F4992342F4BDE2F9
:102BF00090958095709561957F4F8F4F9F4F0C9466
:102C00000216BB27FA01A62F6217710581059105EF
:102C1000330B30FB66F0AA27660F771F881F991FBA
:102C2000AA1FA21710F0A21B63953850A9F7A05D48
:102C3000AA3308F0A95DA19336F7B111B1931082C0
:102C4000CA010C943D16BB27FB015527AA27880F04
:102C5000991FAA1FA41710F0A41B83955051B9F710
:102C6000A05DAA3308F0A95DA193009779F7B1118F
:102C7000B1931192CB010C943D16DC01FC01672F3E
:102C800071917723E1F7329704C07C916D93708343
:0E2C90006291AE17BF07C8F30895F894FFCF06
:102C9E0000E100000000080000C03F00E08A440090
:042CAE00E08A440074
:00000001FF
