:100000000C948E010C94AB010C94AB010C94CE01BA
:100010000C94AB010C94AB010C94AB010C94AB01B0
:100020000C94AB010C94AB010C945A090C949409F8
:100030000C94AB010C94AB010C94AB010C94AB0190
:100040000C94AB010C94AB010C94AB010C94AB0180
:100050000C94AB010C94AB010C94AB010C94FC011F
:100060000C94AB010C94AB010C94AB010C94AB0160
:100070000C94AB010C94AB010C94AB010C94AB0150
:100080000C94AB010C94AB010C94AB010C94AB0140
:100090000C94AB010C94AB010C94AB010C94AB0130
:1000A0000C94AB010C94AB010C94AB010209FA085F
:1000B000F208EA08E208DA08D208CA08C208BA0850
:1000C000B208AA08A2089A0892088A0882087A0840
:1000D00072086A0862085A0852084A0842083A0830
:1000E00032082A0822081A0812080A080208FA0721
:1000F000F207EA07E207DA07D207CA07C207BA0718
:10010000B207AA07A2079A0792078A0782077A0707
:1001100072076A0762075A0752074A0742073A07F7
:1001200032072A0722071A0712070A070207084A96
:10013000D73B3BCE016E84BCBFFDC12F3D6C7431FB
:100140009ABD56833DDA3D00C77F11BED9E4BB4C52
:100150003E916BAAAABE000000803F05A84CCDB21C
:10016000D44EB93836A9020C50B9918688083CA6FD
:10017000AAAA2ABE000000803F005449434B210A2E
:100180000D000A0D00207C20000A0D00207C2000BC
:100190006572726F72210A0D0000010000300212B8
:1001A00000020000ED014300030000E90104010327
:1001B0000904D5011202030904CD01060303090451
:1001C000C301080803340031003000000006034D6D
:1001D000003200000012034A002E00200046006991
:1001E0000065006E00650000000403090409024375
:1001F00000020100C03209040000010202010005F2
:10020000240010010524010101042402060524062E
:1002100000010705820310004009040100020A00E2
:1002200000000705030240000007058402400000AB
:100230001201000202000010C0167A04000101023F
:1002400003010001C1120180360181360A0D002030
:10025000693A0020593A000A0D536F7574682053AB
:100260007461723A20583A0020693A0020593A00E5
:100270000A0D4E6F72746820537461723A20583AB6
:10028000000A0D54686574613A20000A0D593A203D
:1002900000583A20000A0A0D56616C756573206992
:1002A0006E2066756E63696F6E200A0D000A0D0080
:1002B00020693A0020593A0072656D6F76656420B6
:1002C000706F696E743A20583A000A0D0046696EE4
:1002D0006973686564204C6F63616C697A696E67E5
:1002E0002E2044726F70706564204672616D657374
:1002F0003A20000A0D004D5F5769695F56616C75C1
:1003000065733A0A0D005374617274656420746FEA
:10031000204C6F63616C697A650A0D0011241FBE61
:10032000CFEFDAE0DEBFCDBF11E0A0E0B1E0E8E161
:10033000FDE202C005900D92A431B107D9F721E08A
:10034000A4E1B1E001C01D92A635B207E1F70E9419
:1003500050120C948A160C9400006E9A76980E94A3
:100360001006882321F080E991E00C94E30A0895B7
:10037000E1E6F0E080E880831082229A2A9A219AAE
:10038000229A4AE064E181E00E948C0C0E94F70509
:1003900086E90E94780481E00C94A2041F920F92D7
:1003A0000FB60F9211242F933F934F935F936F9348
:1003B0007F938F939F93AF93BF93EF93FF936AE0E5
:1003C00083E491E00E94E40C992787FD9095909337
:1003D000170180931601FF91EF91BF91AF919F910B
:1003E0008F917F916F915F914F913F912F910F90DE
:1003F0000FBE0F901F9018951F920F920FB60F927D
:1004000011242F933F934F935F936F937F938F9319
:100410009F93AF93BF93EF93FF9381E090E090930E
:100420001501809314018AE791E00E94E30AFF918D
:10043000EF91BF91AF919F918F917F916F915F915C
:100440004F913F912F910F900FBE0F901F901895D5
:1004500090934E0180934D01089580914D019091AC
:100460004E01089590935401809353010895809113
:1004700053019091540108959093500180934F013E
:10048000089580914F0190915001089590935201E9
:1004900080935101089580915101909152010895E6
:1004A00020E030E08091BC0087FD06C02F5F3F4F09
:1004B000293E83E03807B1F781E0283E334009F454
:1004C00080E008958093BB0084E88093BC000E9484
:1004D0005002882319F08091B900887F0895CF9346
:1004E000C82F84EA8093BC000E945002882361F0E8
:1004F0008C2F880F0E946202803229F484E9809355
:10050000BC0080E001C081E0CF9108950E94E40B1F
:1005100088E50E946F02811102C080E0089580E3A7
:100520000E9462028823C9F381E00E94620288234C
:10053000A1F384E98093BC008FE39CE90197F1F774
:1005400000C0000088E50E946F02882331F380E03C
:100550000E946202882309F380E00E9462028823DD
:10056000E1F280E00E9462028823B9F280E00E94FA
:100570006202882391F280E00E946202882369F27D
:1005800080E00E946202882341F280E00E946202C1
:10059000882319F280E90E946202882309F4BDCF02
:1005A00084E98093BC008FE39CE90197F1F700C0D8
:1005B000000088E50E946F02882309F4AECF87E02F
:1005C0000E946202882309F4A8CF80E00E946202A0
:1005D000882309F4A2CF81E40E946202882309F4EF
:1005E0009CCF84E98093BC008FE39CE90197F1F7ED
:1005F00000C0000088E50E946F02882309F48DCFB7
:100600008AE10E946202882309F487CF80E40E9475
:100610006202882309F481CF80E00E94620288236D
:1006200009F47BCF84E98093BC008FE39CE90197B8
:10063000F1F700C0000088E50E946F02882309F4EA
:100640006CCF83E30E946202882309F466CF83E0C3
:100650000E946202882309F460CF84E98093BC0081
:100660008FE39CE90197F1F700C0000088E50E9444
:100670006F02882309F451CF80E30E94620288232D
:1006800009F44BCF88E00E946202882309F445CF29
:1006900084E98093BC008FE39CE90197F1F700C0E7
:1006A000000081E00895CF93C82F84EA8093BC00B6
:1006B0000E945002882369F08C2F880F8F5F0E9460
:1006C0006202883429F484E98093BC0080E001C090
:1006D00081E0CF910895EF92FF920F931F93CF93F4
:1006E000DF93CDB7DEB760970FB6F894DEBF0FBECD
:1006F000CDBF7C018E010F5F1F4F80E1F801119289
:100700008A95E9F788E50E946F02811102C080E0B6
:100710005EC086E30E9462028823C9F384E9809365
:10072000BC00F5E8FA95F1F7000088E50E94530354
:10073000882369F3F8019E01205F3F4F94EC90936A
:10074000BC008091BC0087FFFCCF8091BB008193EF
:10075000E217F307A1F784E88093BC008091BC0006
:1007600087FFFCCF8091BB00888B84E98093BC001D
:10077000DE01149687016C91762F7073AD014250A3
:100780005109FA01808190E0F0E17F9F800D911D79
:100790001124F80191838083762F707C4F5F5F4F27
:1007A000FA01808190E0F4E07F9F800D911D11247B
:1007B000F801938382836F70862F90E09583848302
:1007C00013960A5F1F4FA217B307A9F681E0609640
:1007D0000FB6F894DEBF0FBECDBFDF91CF911F9152
:1007E0000F91FF90EF90089584E98093BC000895E5
:1007F000CF93DF9300D000D0CDB7DEB79A01AB0125
:100800009093190180931801909389008093880038
:10081000BC0180E090E029833A834B835C830E9493
:10082000271429813A814B815C810E941E150E9408
:10083000FB1370938B0060938A00E1E8F0E0808105
:1008400080618083808188608083A0E8B0E08C91A3
:1008500082608C938C9181608C938C9180628C935C
:100860008C918F7E8C9380818B7F8083808182604E
:10087000808380818E7F8083269A0F900F900F90C7
:100880000F90DF91CF910895CF93DF9300D000D0E8
:10089000CDB7DEB79B01AC016091180170911901D1
:1008A00080E090E029833A834B835C830E94271485
:1008B00029813A814B815C810E941E150E94FB13A5
:1008C00070938B0060938A000F900F900F900F90A1
:1008D000DF91CF910895E1E8F0E080818B7F808304
:1008E00080818D7F808380818E7F8083269808958C
:1008F00087BD85B5886085BD84B5826084BD84B5BB
:10090000816084BD84B58F7784BD84B58F7B84BDC1
:1009100084B58F7D84BD84B58F7E84BD85B58460AC
:1009200085BD85B58D7F85BD85B5816085BD089503
:1009300085B58B7F85BD85B58D7F85BD85B58E7F62
:1009400085BD0895882339F080916E008160809381
:100950006E007894089580916E008E7F80936E0073
:100960000895CF93DF9300D000D0CDB7DEB79A01C2
:10097000AB0190931B0180931A0190939700809391
:100980009600BC0180E090E029833A834B835C832E
:100990000E94271429813A814B815C810E941E1597
:1009A0000E94FB137093990060939800E1E9F0E0D6
:1009B000808180618083808188608083A0E9B0E04D
:1009C0008C9182608C938C918E7F8C938C918068BB
:1009D0008C938C918F7B8C9380818B7F80838081A3
:1009E0008260808380818E7F80833E9A0F900F90FB
:1009F0000F900F90DF91CF910895CF93DF9300D0A8
:100A000000D0CDB7DEB79B01AC0160911A017091A7
:100A10001B0180E090E029833A834B835C830E9432
:100A2000271429813A814B815C810E941E150E9406
:100A3000FB1370939900609398000F900F900F90A4
:100A40000F90DF91CF910895E1E9F0E080818B7FF5
:100A5000808380818D7F808380818E7F80833E989C
:100A6000089508950895CF92DF92EF92FF92690161
:100A70007A01BA01A90180E091E00E94F803B70170
:100A8000A60180E091E00E94B1040E944B0260E068
:100A900070E0CB010E9481156B017C0182E090E047
:100AA0000E94280220E030E0A901C701B6010E949F
:100AB000C7120E941E164E979CF460E070E0CB01B6
:100AC0000E941E164E9764F40E946B040E94240537
:100AD00080E090E0FF90EF90DF90CF900C942802A0
:100AE000FF90EF90DF90CF900895CF93DF93EA01CE
:100AF000AB01BC0180E094E00E94F803CD2B11F41F
:100B0000289A01C02898DF91CF9108950C946B0426
:100B1000CF93DF93EA01AB01BC0180E094E00E9437
:100B2000B104CD2B11F4289A01C02898DF91CF9100
:100B300008950C942405CF93DF93ACE7B0E08C913B
:100B40008F778C938C9180648C93EAE7F0E08081BE
:100B500084608083808182608083808181608083E3
:100B6000CEE7D0E088818160888380818062808345
:100B7000CBE7D0E088818F7D88838C918B7F8C93AD
:100B80008C918D7F8C938C918E7F8C9380818068EB
:100B90008083808180648083DF91CF910895892B49
:100BA00039F080917A00886080937A007894089573
:100BB00080917A00877F80937A000895EAE7F0E0D9
:100BC00090819F779083ACE7B0E09C918770987F8D
:100BD000892B8C93808180688083089580917C002C
:100BE000877008958091E80080FFFCCF089581E030
:100BF0008093D70080EA8093D80082E189BD09B450
:100C000000FEFDCF80E98093D8001092E0001092A2
:100C10001F0110921C018CE08093E20078940895EB
:100C200080911F0108959FB7F89480911F01882338
:100C300039F083E08093E9008091E80085FD03C0EE
:100C40009FBF8FEF08958091F1002091E80025FD6E
:100C500003C02BE62093E8009FBF08959FB7F89448
:100C600080911F01882331F083E08093E900809117
:100C7000F20001C080E09FBF089580911F0188238A
:100C800071F08FB7F89493E09093E9002BE6909180
:100C9000E80095FF03C02093E800F9CF8FBF0895C7
:100CA00090911F01992371F09FB7F89424E020934D
:100CB000E90020911D01222349F02091E80025FD43
:100CC00003C09FBF8FEF089510921D012091E40093
:100CD000275E34E04091E80045FD12C09FBF90912F
:100CE000E400921304C081E080931D01EBCF90914A
:100CF0001F01992339F39FB7F8943093E900EACFA5
:100D00008093F1008091E80085FD03C08AE3809321
:100D1000E80085E080931E019FBF80E008959091D8
:100D20001F019923D1F09FB7F89424E02093E900A4
:100D30002091E80025FD02C09FBF0FC08093F10005
:100D40008091E80085FD03C08AE38093E80085E098
:100D500080931E019FBF80E008958FEF0895EF926A
:100D6000FF921F93CF93DF937C01CB0120911F0152
:100D7000222371F0AFB7F89424E02093E90020918A
:100D80001D01222349F02091E80025FD03C0AFBFDB
:100D90008FEF42C210921D01B4E0C0E4DAE315E027
:100DA000009709F437C22091E400275E3091E800F3
:100DB00035FD12C0AFBF3091E400321304C081E0B2
:100DC00080931D01E5CF30911F01332309F3AFB7A5
:100DD000F894B093E900EACF2091F2004C2F421B27
:100DE000242F30E08217930708F4482F841B9109C1
:100DF00050E04134510508F0FDC14A5A5F4FFA01F5
:100E00000C941816F70120812093F10097012F5FB1
:100E10003F4F7901F70120812093F10097012F5F67
:100E20003F4F7901F70120812093F10097012F5F57
:100E30003F4F7901F70120812093F10097012F5F47
:100E40003F4F7901F70120812093F10097012F5F37
:100E50003F4F7901F70120812093F10097012F5F27
:100E60003F4F7901F70120812093F10097012F5F17
:100E70003F4F7901F70120812093F10097012F5F07
:100E80003F4F7901F70120812093F10097012F5FF7
:100E90003F4F7901F70120812093F10097012F5FE7
:100EA0003F4F7901F70120812093F10097012F5FD7
:100EB0003F4F7901F70120812093F10097012F5FC7
:100EC0003F4F7901F70120812093F10097012F5FB7
:100ED0003F4F7901F70120812093F10097012F5FA7
:100EE0003F4F7901F70120812093F10097012F5F97
:100EF0003F4F7901F70120812093F10097012F5F87
:100F00003F4F7901F70120812093F10097012F5F76
:100F10003F4F7901F70120812093F10097012F5F66
:100F20003F4F7901F70120812093F10097012F5F56
:100F30003F4F7901F70120812093F10097012F5F46
:100F40003F4F7901F70120812093F10097012F5F36
:100F50003F4F7901F70120812093F10097012F5F26
:100F60003F4F7901F70120812093F10097012F5F16
:100F70003F4F7901F70120812093F10097012F5F06
:100F80003F4F7901F70120812093F10097012F5FF6
:100F90003F4F7901F70120812093F10097012F5FE6
:100FA0003F4F7901F70120812093F10097012F5FD6
:100FB0003F4F7901F70120812093F10097012F5FC6
:100FC0003F4F7901F70120812093F10097012F5FB6
:100FD0003F4F7901F70120812093F10097012F5FA6
:100FE0003F4F7901F70120812093F10097012F5F96
:100FF0003F4F7901F70120812093F10097012F5F86
:101000003F4F7901F70120812093F10097012F5F75
:101010003F4F7901F70120812093F10097012F5F65
:101020003F4F7901F70120812093F10097012F5F55
:101030003F4F7901F70120812093F10097012F5F45
:101040003F4F7901F70120812093F10097012F5F35
:101050003F4F7901F70120812093F10097012F5F25
:101060003F4F7901F70120812093F10097012F5F15
:101070003F4F7901F70120812093F10097012F5F05
:101080003F4F7901F70120812093F10097012F5FF5
:101090003F4F7901F70120812093F10097012F5FE5
:1010A0003F4F7901F70120812093F10097012F5FD5
:1010B0003F4F7901F70120812093F10097012F5FC5
:1010C0003F4F7901F70120812093F10097012F5FB5
:1010D0003F4F7901F70120812093F10097012F5FA5
:1010E0003F4F7901F70120812093F10097012F5F95
:1010F0003F4F7901F70120812093F10097012F5F85
:101100003F4F7901F70120812093F10097012F5F74
:101110003F4F7901F70120812093F10097012F5F64
:101120003F4F7901F70120812093F10097012F5F54
:101130003F4F7901F70120812093F10097012F5F44
:101140003F4F7901F70120812093F10097012F5F34
:101150003F4F7901F70120812093F10097012F5F24
:101160003F4F7901F70120812093F10097012F5F14
:101170003F4F7901F70120812093F10097012F5F04
:101180003F4F7901F70120812093F10097012F5FF4
:101190003F4F7901F70120812093F10097012F5FE4
:1011A0003F4F7901F70120812093F10097012F5FD4
:1011B0003F4F7901F70120812093F10097012F5FC4
:1011C0003F4F7901F70120812093F10097012F5FB4
:1011D0003F4F7901F70120812093F10097012F5FA4
:1011E0003F4F7901F70120812093F10097012F5F94
:1011F0003F4F7901F70120812093F10097012F5F84
:101200003F4F79012091E80025FFD093E80010932B
:101210001E01C6CDAFBF80E0DF91CF911F91FF903F
:10122000EF9008958FB7F89490911E01992341F0A3
:1012300094E09093E9009AE39093E80010921E01E5
:101240008FBF08958091040108958091050108954C
:1012500080910601089580911C0108959FB7F8942C
:1012600020911F01222339F022E02093E9003091E0
:10127000E80035FD03C09FBF8FEF089531EA30933A
:10128000F10030E23093F1001092F1001092F10081
:101290001092F1001092F1002093F1001092F100F1
:1012A0008093F1001092F1008AE38093E8009FBFE1
:1012B00080E008951F920F920FB60F9211248F9322
:1012C0009F938091E1001092E10083FF11C0109282
:1012D000E90091E09093EB001092EC0092E1909382
:1012E000ED0098E09093F00010921F0110921C0105
:1012F00082FF13C080911F01882379F080911E0125
:10130000882359F0815080931E01811106C084E02A
:101310008093E9008AE38093E8009F918F910F907A
:101320000FBE0F901F9018951F920F920FB60F923D
:101330001124EF92FF920F931F932F933F934F939C
:101340005F936F937F938F939F93AF93BF93EF932D
:10135000FF93CF93DF931F92CDB7DEB71092E900D2
:101360008091E80083FF14C19091F1008091F10019
:101370003091F1002091F100E32EF12CF22A00913E
:10138000F1002091F10010E0122B2091F10060910A
:10139000F10032EF3093E800863009F046C036E0C5
:1013A00089E991E0FC01459154914E155F0539F4AE
:1013B000FC013296459154914017510721F0079650
:1013C000315081F7E5C0FC01349645915491FC0100
:1013D0003696849130E0362B2F3F310519F010F00E
:1013E0002FEF30E0281708F4822F3EEF9091E800AD
:1013F000292F2570D9F392FDCEC0982F813108F0A6
:1014000090E1FA01292F222331F064916093F100D9
:1014100021503196F8CF490F511D891B3093E800B8
:101420008111E4CF903111F3B6C0853051F48EEFC5
:101430008093E8000E94F2058E2D80688093E3007F
:10144000AAC0893059F5911180C0E0921F01109215
:101450001C0110921E018EEF8093E80041E082E4AF
:1014600092E04093E9009C012F5F3F4FFC015491B3
:101470005093EB00552359F0F90124912093EC008F
:101480009C012D5F3F4F319684918093ED004F5F1B
:10149000453011F0C901E5CF8EE175C0883051F4B7
:1014A000903809F052C00E94F20580911F0180938C
:1014B000F10047C0813279F4913A09F046C00E94A8
:1014C000F205E0E0F1E081918093F10081E0E73006
:1014D000F807C9F736C0803299F49132B1F580919E
:1014E000E80082FFFCCFE0E0F1E08091F100819321
:1014F00081E0E730F807C9F78BEF8093E80021C05F
:10150000823241F4913209F043C0E0921C010E9402
:10151000F20517C0811119C099830E94F2059981C3
:10152000923851F40093E9008091EB0085FB882705
:1015300080F91092E90001C080E08093F1001092E0
:10154000F1008EEF8093E80026C0282F2D7F2130F8
:10155000F9F49230E9F4EF28D9F40F779FEF900F68
:101560009430B0F49EEF9093E8000093E90083304C
:1015700079F089E18093EB0081E090E0002E01C0DA
:10158000880F0A94EAF78093EA001092EA0003C0F9
:1015900081E28093EB000F90DF91CF91FF91EF916B
:1015A000BF91AF919F918F917F916F915F914F917B
:1015B0003F912F911F910F91FF90EF900F900FBED1
:1015C0000F901F9018951F93CF93DF93EC01FE01AE
:1015D0001491112351F01A3019F48DE00E94500635
:1015E000812F0E9450062196F2CFDF91CF911F915B
:1015F00008958A3010F490E301C097E3890F0C94AA
:101600005006CF93C82F82958F700E94F90A8C2FB5
:101610008F70CF910C94F90ACF93C82F892F0E9415
:10162000010B8C2FCF910C94010B0C94010BEF92BA
:10163000FF920F931F93CF93DF93CDB7DEB727971A
:101640000FB6F894DEBF0FBECDBF8E010F5F1F4FE8
:1016500027E0F80111922A95E9F74AE0B8010E94C3
:1016600024167E01F8E0EF0EF11CF80181918F0144
:1016700081110E9450060E151F05B9F727960FB667
:10168000F894DEBF0FBECDBFDF91CF911F910F91B8
:10169000FF90EF900895EF92FF920F931F93CF93D7
:1016A000DF9300D000D000D0CDB7DEB78E010F5F42
:1016B0001F4F26E0F80111922A95E9F74AE0B80198
:1016C0000E9460167E01F6E0EF0EF11CF801819198
:1016D0008F0181110E9450060E151F05B9F726963D
:1016E0000FB6F894DEBF0FBECDBFDF91CF911F9133
:1016F0000F91FF90EF900895EF92FF920F931F9339
:10170000CF93DF93CDB7DEB72B970FB6F894DEBF3C
:101710000FBECDBF8E010F5F1F4F2BE0F80111925E
:101720002A95E9F72AE0A8010E942F167E01FCE025
:10173000EF0EF11CF80181918F0181110E9450067A
:101740000E151F05B9F72B960FB6F894DEBF0FBE26
:10175000CDBFDF91CF911F910F91FF90EF90089532
:10176000EF92FF920F931F93CF93DF93CDB7DEB726
:101770002B970FB6F894DEBF0FBECDBF8E010F5F63
:101780001F4F2BE0F80111922A95E9F72AE0A801F2
:101790000E943E167E01FBE0EF0EF11CF8018191E4
:1017A0008F0181110E9450060E151F05B9F72B9667
:1017B0000FB6F894DEBF0FBECDBFDF91CF911F9162
:1017C0000F91FF90EF900895589A599A5A9A8CE089
:1017D0008093B800E9E6F0E08081806280838081B8
:1017E0008F7E8083EA9A7894089584E88093BC0081
:1017F0008091BC0087FFFCCF8091BB00089584E9F5
:101800008093BC00089520E030E08091BC0087FD0B
:1018100006C02F5F3F4F293E83E03807B1F781E0D4
:10182000283E334009F480E008958093BB0084E8AB
:101830008093BC000E94030C882321F08091B900A2
:10184000887F089580E008951F93CF93DF931F92C0
:10185000CDB7DEB7182F84EA8093BC0069830E945D
:10186000030C6981811104C094E99093BC0014C0F9
:10187000812F880F662331F08F5F0E94150C88340A
:1018800051F404C00E94150C803229F484E980933D
:10189000BC0080E001C081E00F90DF91CF911F91EB
:1018A0000895CF93DF93C82FD62F60E00E94240CB9
:1018B000882391F08D2F0E94150C882369F084E90C
:1018C0008093BC0061E08C2F0E94240C882321F0BF
:1018D000DF91CF910C94F50B80E0DF91CF910895CB
:1018E000CF93DF93D62FC42F60E00E94240C811188
:1018F00002C080E00EC08D2F0E94150C8823C9F312
:101900008C2F0E94150C8823A1F384E98093BC00DE
:1019100081E0DF91CF910895CF93DF9300D01F92A4
:10192000CDB7DEB74B836A8389830E94E40B94EAC8
:101930009093BC0089816A814B819091BC0097FF94
:10194000FCCF90E59093BB0094E89093BC009091FD
:10195000BC0097FFFCCF9091B900987F903229F49A
:1019600084E98093BC0080E029C091E09093BB00A3
:1019700094E89093BC009091BC0097FFFCCF8093BB
:10198000BB0084E88093BC008091BC0087FFFCCF43
:101990006093BB0084E88093BC008091BC0087FF0B
:1019A000FCCF4093BB0084E88093BC008091BC00D6
:1019B00087FFFCCF84E98093BC0081E00F900F90FB
:1019C0000F90DF91CF91089524EA2093BC002091DD
:1019D000BC0027FFFCCF21E52093BB0024E8209327
:1019E000BC002091BC0027FFFCCF2091B900287FCC
:1019F0002834A9F024EC2093BC002091BC0027FFE0
:101A0000FCCF2091BB0026130AC0FC0120E030E08F
:101A1000772767FD70956150710944EC0EC084E929
:101A20008093BC0080E008955091BC0057FFFCCF2C
:101A30005091BB0051932F5F3F4F261737071CF47F
:101A40004093BC00F1CF44E84093BC004091BC00FF
:101A500047FFFCCF4091BB00FC01E20FF31F408326
:101A600084E98093BC0081E00895F89494EA90930F
:101A7000BC009091BC0097FFFCCF90E59093BB0019
:101A800094E89093BC009091BC0097FFFCCF90919C
:101A9000B900987F903231F484E98093BC00789447
:101AA00080E0089593E09093BB0094E89093BC008D
:101AB0009091BC0097FFFCCF8093BB0084E880939B
:101AC000BC008091BC0087FFFCCFFB01552747FD80
:101AD000509524E8CF01861B970B8417950754F483
:101AE00081918093BB002093BC008091BC0087FF54
:101AF000FCCFF0CF84E98093BC00789481E0089516
:101B00000E948602882321F081E08093400108959D
:101B10000C94AD012F923F924F925F926F927F9201
:101B20008F929F92AF92BF92CF92DF92EF92FF92ED
:101B30000F931F93CF93DF93CDB7DEB7C156D10973
:101B40000FB6F894DEBF0FBECDBF5C01B0E2CB2E66
:101B5000B1E0DB2E8C01612C712CE12CF12C88245E
:101B60008394912CD8018D919C918F3F934031F4B7
:101B7000F801828193818F3F934039F0D801149608
:101B80008D919C911597039740F1F6019182808287
:101B9000FFEF6F1A7F0A0E941006882309F188EB75
:101BA00092E00E94E30AD8018D919C910E94170B4C
:101BB00084EB92E00E94E30AF801828193810E9403
:101BC000170B80EB92E00E94E30AC7010E94170BFB
:101BD0008DEA92E00E94E30A03C0D6011D921C9296
:101BE000BFEFEB1AFB0A0A5F1F4FE2E0CE0ED11CDB
:101BF000F4E0EF16F10409F0B5CF22E062167104AB
:101C00000CF0C4C31092420110924101AE014F5F2B
:101C10005F4F67965FAF4EAF67972996BFAEAEAE88
:101C2000299780E291E061969FAF8EAF6197612C1A
:101C3000712C6A961FAE6A976E961FAE6E976F965E
:101C40001FAE6F97A0961FAEA0972F96BFAEAEAEF9
:101C50002F97A0E2B1E06396BFAFAEAF639700E00D
:101C600010E0812C912CA1968FAEA197A2969FAEE9
:101C7000A2976814790409F4CDC06196AEADBFADEA
:101C800061978D919C91892B09F0C4C06396EEAD4C
:101C9000FFAD639780819181892B09F0BBC02996A4
:101CA000AEADBFAD29976D917C9180E090E00E9430
:101CB00027146B017C012F96EEADFFAD2F9760814D
:101CC000718180E090E00E9427149B01AC01C70164
:101CD000B6010E94C6120E94F6139B0177FF04C052
:101CE00022273327261B370BB901882777FD8095DC
:101CF000982F0E9429141B012C012996AEADBFAD6F
:101D0000299712966D917C91139780E090E00E9444
:101D100027146B017C012F96EEADFFAD2F976281EA
:101D2000738180E090E00E9427149B01AC01C70101
:101D3000B6010E94C6120E94F6139B0177FF04C0F1
:101D400022273327261B370BB901882777FD80957B
:101D5000982F0E9429146B017C01A2019101C201FC
:101D6000B1010E941E151B012C01A7019601C7019C
:101D7000B6010E941E159B01AC01C201B1010E9477
:101D8000C7120E948B156B017C016A962FAD6A9772
:101D90006E963FAD6E976F964FAD6F97A0965FAD05
:101DA000A0970E94131518166CF02696FFAD269783
:101DB000A196FFAFA19727962FAD2797A2962FAF99
:101DC000A29710C02D967FAE6EAE2D976A96CFAEBD
:101DD0006A976E96DFAE6E976F96EFAE6F97A0968E
:101DE000FFAEA097C601D7016796EEADFFAD67972E
:101DF000E00FF11F80839183A283B383A1963FAD4F
:101E0000A19726963FAF2697A2964FADA297279609
:101E10004FAF27975FEF851A950A63968EAD9FADFA
:101E20006397029663969FAF8EAF63970C5F1F4FC9
:101E30002F96AEADBFAD2F9716962F96BFAFAEAF14
:101E40002F97B4E08B16910409F00DCFEFEF6E1AC7
:101E50007E0A61962EAD3FAD61972E5F3F4F619632
:101E60003FAF2EAF619767964EAD5FAD6797405F0E
:101E70005F4F67965FAF4EAF679729968EAD9FAD68
:101E80002997069629969FAF8EAF299794E06916F9
:101E9000710409F0DACE20E030E080E090E02D9689
:101EA000EEADFFAD2D97E817F907A1F027964EADDF
:101EB0005FAD27974817590769F0F901EE0FFF1F2B
:101EC000A1E4B0E0AC0FBD1FEA0FFB1F918380833C
:101ED0002F5F3F4F01968430910509F72396EEACB2
:101EE000FFAC239725960EAD1FAD25972D96AEAD71
:101EF000BFAD2D97AA0FBB1FAA0FBB1FFD01EE0D93
:101F0000FF1DEE0FFF1FEE0FFF1F21E030E02C0F33
:101F10003D1FE20FF31FA00FB11FAA0FBB1FAA0F97
:101F2000BB1FA20FB31F2D913D914D915C9160811C
:101F30007181828193810E94C7122B013C012796F7
:101F40008EAD9FAD2797880F991F880F991FFC01B1
:101F5000EE0DFF1DEE0FFF1FEE0FFF1F41E050E0E3
:101F60004C0F5D1FE40FF51FDC01A00FB11FAA0F7E
:101F7000BB1FAA0FBB1FA40FB51F2D913D914D9103
:101F80005C9160817181828193810E94C7129B0163
:101F9000AC01C301B2010E9413151816A4F42C96CB
:101FA0009FAD2C972D968FAD2D972796AEADBFADDB
:101FB00027972D96BFAFAEAF2D9726969FAF26974A
:101FC00027968FAF279786E02D96EEADFFAD2D9724
:101FD0008E9F80018F9F100D11249501200F311FBE
:101FE0002F963FAF2EAF2F97D901CD90DC9027963B
:101FF000EEADFFAD27978E9F10018F9F300C1124FF
:102000009501220D331D61963FAF2EAF6197D90127
:10201000ED90FC900E5F1F4F0A0D1B1DF801808094
:102020009180F2E02F0E311C2A0C3B1CD101AD90A7
:10203000BC90B60180E090E00E9427142B013C0187
:10204000B70180E090E00E9427149B01AC01C3011E
:10205000B2010E94C6122B013C01B40180E090E065
:102060000E9427142B966CAF7DAF8EAF9FAF2B973E
:10207000B50180E090E00E9427149B01AC012B96F3
:102080006CAD7DAD8EAD9FAD2B970E94C612A301A6
:1020900092010E943A1365966CAF7DAF8EAF9FAFF1
:1020A00065979B01AC0150582B962CAF3DAF4EAFBE
:1020B0005FAF2B97CA01B9010E948D1369966CAF6F
:1020C0007DAF8EAF9FAF69972B966CAD7DAD8EAD1A
:1020D0009FAD2B970E9481156D966CAF7DAF8EAF33
:1020E0009FAF6D97B7016C0D7D1D7695679580E06C
:1020F00090E00E94271420E030E040E054E40E9489
:10210000C6122B013C01B501680D791D76956795C6
:1021100080E090E00E94271420E030E040EC53E49F
:102120000E94C6124B015C01A301920169966CAD3D
:102130007DAD8EAD9FAD69970E941E156B017C0130
:102140006D966CAD7DAD8EAD9FAD6D979058A50130
:1021500094010E941E159B01AC01C701B6010E94AB
:10216000C7126B017C01A30192016D966CAD7DAD30
:102170008EAD9FAD6D970E941E152B013C01A501F0
:10218000940169966CAD7DAD8EAD9FAD69970E944F
:102190001E159B01AC01C301B2010E94C7124B0185
:1021A0005C012BE734E14EE65FE360910B01709137
:1021B0000C0180910D0190910E010E941E152B01C2
:1021C0003C0128E23CE54FE85DE3C701B6010E940F
:1021D0001E159B01AC01C301B2010E94C71260939E
:1021E0000B0170930C0180930D0190930E012BE76E
:1021F00034E14EE65FE360910F0170911001809130
:102200001101909112010E941E152B013C0128E240
:102210003CE54FE85DE3C501B4010E941E159B013A
:10222000AC01C301B2010E94C71260930F01709309
:102230001001809311019093120165968CAD9DADB4
:10224000AEADBFAD65978093070190930801A09351
:102250000901B0930A010E941006882309F49FC067
:1022600085E992E00E94E30A81E992E00E94E30A94
:1022700020E030E048EC52E4C701B6010E941E1590
:102280000E94F613CB010E94170B8BE892E00E948C
:10229000E30A20E030E048EC52E4C501B4010E94BA
:1022A0001E150E94F613CB010E94170B81E892E0E5
:1022B0000E94E30A20E030E048EC52E42B966CAD3B
:1022C0007DAD8EAD9FAD2B970E941E150E94F6131B
:1022D000CB010E94170B80E792E00E94E30A2F9641
:1022E000AEADBFAD2F978D919C910E94170B8CE6E0
:1022F00092E00E94E30AF801808191810E94170B0D
:1023000088E692E00E94E30A2D968EAD9FAD2D9750
:102310000E94170B87E592E00E94E30A6196AEAD3A
:10232000BFAD61978D919C910E94170B83E592E060
:102330000E94E30AF101808191810E94170B8FE4D2
:1023400092E00E94E30A27968EAD9FAD27970E94E8
:10235000170B8CE492E0CF59DF4F0FB6F894DEBF35
:102360000FBECDBFDF91CF911F910F91FF90EF90E6
:10237000DF90CF90BF90AF909F908F907F906F90A5
:102380005F904F903F902F900C94E30A8091410111
:102390009091420101969093420180934101CF595F
:1023A000DF4F0FB6F894DEBF0FBECDBFDF91CF91E8
:1023B0001F910F91FF90EF90DF90CF90BF90AF9063
:1023C0009F908F907F906F905F904F903F902F9055
:1023D0000895CF93DF93CDB7DEB72C970FB6F8945F
:1023E000DEBF0FBECDBF0E941006882321F086E01D
:1023F00093E00E94E30A80914001811102C00E9493
:10240000800D88E291E00E946B03882349F10E94CD
:102410001006882351F086EF92E00E94E30A6E9A3C
:10242000769883EF92E00E94E30A88E291E00E94AE
:102430008A0DCE0101960E9446020E941006882352
:1024400089F08DEC92E00E94E30A80914101909125
:1024500042010E94170B8AEC92E00E94E30A02C03C
:102460000E94AD012C960FB6F894DEBF0FBECDBF13
:10247000DF91CF910895CF93DF93CDB7DEB72C973F
:102480000FB6F894DEBF0FBECDBFCE0101962C96DD
:102490000FB6F894DEBF0FBECDBFDF91CF91089588
:1024A0000E94B80140E050E060E070E080E89FE307
:1024B0000E94750540E050E060E070E080E89FE336
:1024C0000E9488058091140190911501892B09F4CF
:1024D00051C06A9A72980E94E9110E9410068823DE
:1024E00009F444C00E944B028C010E943B127C0103
:1024F000E80100E010E0699179918991999120E0DB
:1025000030E04AE754E40E941E150E94F613CB0106
:102510000E94170B8CE891E00E94E30A0F5F1F4FA7
:102520000330110541F789E891E00E94E30AE701D1
:1025300000E010E0699179918991999120E030E073
:102540004AE754E40E941E150E94F613CB010E9434
:10255000170B85E891E00E94E30A0F5F1F4F0330DD
:10256000110541F782E891E00E94E30A10921501FB
:10257000109214018091160190911701892B09F492
:10258000A1CF10921701109216019CCF5058BB2773
:10259000AA270ED0FDC1C6D130F0CBD120F031F446
:1025A0009F3F11F41EF496C10EF4E095E7FB8CC139
:1025B000E92F10D280F3BA176207730784079507D3
:1025C00018F071F49EF528C20EF4E0950B2EBA2F88
:1025D000A02D0B01B90190010C01CA01A001112429
:1025E000FF27591B99F0593F50F4503E68F11A16D5
:1025F000F040A22F232F342F4427585FF3CF469566
:1026000037952795A795F0405395C9F77EF41F1687
:10261000BA0B620B730B840BBAF09150A1F0FF0F51
:10262000BB1F661F771F881FC2F70EC0BA0F621F3D
:10263000731F841F48F4879577956795B795F7952D
:102640009E3F08F0B3CF9395880F08F09927EE0FBF
:1026500097958795089566D158F080E891E009F440
:102660009EEF67D128F040E851E059F45EEF09C0D1
:1026700031C1D2C1E92FE078ADD168F3092E052A26
:10268000C1F3261737074807590738F00E2E07F809
:10269000E02569F0E025E0640AC0EF6307F80094E4
:1026A00007FADB01B9019D01DC01CA01AD01EF931D
:1026B00044D06ED10AD05F91552331F02BED3FE02D
:1026C00049E450FD49EC63CF0895DF93DD27B92F2E
:1026D000BF7740E85FE31616170648075B0710F45C
:1026E000D92FA5D19F938F937F936F9352D2EEE210
:1026F000F1E0F3D04DD12F913F914F915F91AAD14D
:10270000DD2349F09058A2EA2AED3FE049EC5FE36F
:10271000D0785D274DDFDF913BC113D1E39549C1EF
:1027200008D140F0FFD030F021F45F3F19F0CCC069
:10273000511173C1CFC04ED198F39923C9F35523DA
:10274000B1F3951B550BBB27AA27621773078407A4
:1027500038F09F5F5F4F220F331F441FAA1FA9F35A
:1027600033D00E2E3AF0E0E830D091505040E6954C
:10277000001CCAF729D0FE2F27D0660F771F881FAD
:10278000BB1F261737074807AB07B0E809F0BB0B9C
:10279000802DBF01FF2793585F4F2AF09E3F5105C0
:1027A00068F092C03AC15F3FECF3983EDCF3869547
:1027B00077956795B795F7959F5FC9F7880F911D36
:1027C0009695879597F90895E1E0660F771F881F22
:1027D000BB1F621773078407BA0720F0621B730BD5
:1027E000840BBA0BEE1F88F7E095089504D0689427
:1027F000B11113C10895F6D088F09F5790F0B92F0A
:102800009927B751A0F0D1F0660F771F881F991F45
:102810001AF0BA95C9F712C0B13081F0FDD0B1E01D
:102820000895FAC0672F782F8827B85F39F0B93F2D
:10283000CCF3869577956795B395D9F73EF4909547
:102840008095709561957F4F8F4F9F4F0895E894C5
:1028500009C097FB3EF490958095709561957F4FE8
:102860008F4F9F4F9923A9F0F92F96E9BB27939596
:10287000F695879577956795B795F111F8CFFAF4A6
:10288000BB0F11F460FF1BC06F5F7F4F8F4F9F4FD7
:1028900016C0882311F096E911C0772321F09EE835
:1028A000872F762F05C0662371F096E8862F70E09B
:1028B00060E02AF09A95660F771F881FDAF7880F75
:1028C0009695879597F9089597F99F6780E870E046
:1028D00060E008959FEF80EC0895DF93CF931F93FE
:1028E0000F93FF92EF92DF927B018C01689405C0F9
:1028F000DA2EEF01AFD0FE01E894A5912591359134
:1029000045915591AEF3EF0153DEFE019701A80109
:10291000DA9479F7DF90EF90FF900F911F91CF91AC
:10292000DF91089500240A94161617061806090662
:10293000089500240A941216130614060506089535
:10294000C9CF50D0E8F3E894E0E0BB279F57F0F000
:102950002AED3FE049EC06C0EE0FBB0F661F771F64
:10296000881F28F0B23A62077307840728F0B25A2A
:10297000620B730B840BE3959A9572F7803830F4F1
:102980009A95BB0F661F771F881FD2F790482CC1FE
:10299000092E0394000C11F4882352F0BB0F40F46D
:1029A000BF2B11F460FF04C06F5F7F4F8F4F9F4FAD
:1029B0000895EF93E0FF06C0A2EA2AED3FE049EC5C
:1029C0005FEBF6DDE5DF0F90039401FC9058EBE53B
:1029D000F1E01DC157FD9058440F551F59F05F3F5E
:1029E00071F04795880F97FB991F61F09F3F79F031
:1029F00087950895121613061406551FF2CF4695B3
:102A0000F1DF08C0161617061806991FF1CF869534
:102A10007105610508940895E894BB276627772718
:102A2000CB0197F90895BAD008F48FEF08959B0170
:102A3000AC0160E070E080E89FE3AEC00BD0A8CFAF
:102A400071DF28F076DF18F0952309F03DCF42CFF3
:102A50001124E3CFBFDFA0F3959FD1F3950F50E092
:102A6000551F629FF001729FBB27F00DB11D639F40
:102A7000AA27F00DB11DAA1F649F6627B00DA11DE6
:102A8000661F829F2227B00DA11D621F739FB00D8C
:102A9000A11D621F839FA00D611D221F749F3327FC
:102AA000A00D611D231F849F600D211D822F762F95
:102AB0006A2F11249F5750408AF0E1F088234AF092
:102AC000EE0FFF1FBB1F661F771F881F91505040DE
:102AD000A9F79E3F510570F0F7CE9FCF5F3FECF313
:102AE000983EDCF3869577956795B795F795E795CA
:102AF0009F5FC1F7FE2B880F911D9695879597F9DB
:102B000008959F931EDF0F9007FCEE5F52CF11F4E4
:102B10000EF4E0CE67C066DFD0F39923D9F3CEF38D
:102B20009F57550B87FF6CD00024A0E640EA900128
:102B300080585695979528F4805C660F771F881FFC
:102B400020F026173707480730F4621B730B840BFD
:102B5000202931294A2BA695179407942025312541
:102B60004A2758F7660F771F881F20F02617370768
:102B7000480730F4620B730B840B200D311D411D8F
:102B8000A09581F7B901842F9158880F9695879564
:102B900008959B01AC0152CFCEDDFACE990F00080B
:102BA000550FAA0BE0E8FEEF16161706E807F9071F
:102BB000C0F012161306E407F50798F0621B730BBA
:102BC000840B950B39F40A2661F0232B242B252B3B
:102BD00021F408950A2609F4A140A6958FEF811DDE
:102BE000811D08959F3F31F0915020F4879577958E
:102BF0006795B795880F911D9695879597F90895D4
:102C000091505040660F771F881FD2F708959F9309
:102C10008F937F936F93FF93EF939B01AC010EDF34
:102C2000EF91FF915ADE2F913F914F915F9106CF27
:102C3000EE0FFF1F0590F491E02D099497FF03C05C
:102C40009195819591090895BB274A3031F49923D4
:102C500022F4BDE2909581959F4F0C946116BB279D
:102C60002A3051F4992342F4BDE2909580957095F5
:102C700061957F4F8F4F9F4F0C943F16BB27FA01F2
:102C8000A62F6217710581059105330B30FB66F0A5
:102C9000AA27660F771F881F991FAA1FA21710F077
:102CA000A21B63953850A9F7A05DAA3308F0A95D6F
:102CB000A19336F7B111B1931082CA010C947A1620
:102CC000BB27FB015527AA27880F991FAA1FA41706
:102CD00010F0A41B83955051B9F7A05DAA3308F0FA
:102CE000A95DA193009779F7B111B1931192CB012E
:102CF0000C947A16DC01FC01672F71917723E1F7C0
:102D0000329704C07C916D9370836291AE17BF07B8
:082D1000C8F30895F894FFCF09
:102D180000E100000000080000C03F00E08A440015
:042D2800E08A4400F9
:00000001FF
