:100000000C94B0000C94CD000C94CD000C94CD0059
:100010000C94CD000C94CD000C94CD000C94CD002C
:100020000C94CD000C94CD000C940B010C94490160
:100030000C94CD000C94CD000C94CD000C94CD000C
:100040000C94CD000C94CD000C94CD000C94CD00FC
:100050000C94CD000C94CD000C94CD000C94CD00EC
:100060000C94CD000C94CD000C94CD000C94CD00DC
:100070000C94CD000C94CD000C94CD000C94CD00CC
:100080000C94CD000C94CD000C94CD000C94CD00BC
:100090000C94CD000C94CD000C94CD000C94CD00AC
:1000A0000C94CD000C94CD000C94CD000001000008
:1000B0004301120002000000014300030000FC00A5
:1000C0000401030904E8001202030904E000060326
:1000D000030904D600080803340031003000000092
:1000E00006034D003200000012034A002E002000DB
:1000F0004600690065006E00650000000403090405
:1001000009024300020100C032090400000102029A
:100110000100052400100105240101010424020648
:1001200005240600010705820310004009040100B0
:10013000020A0000000705030240000007058402D0
:100140004000001201000202000010C0167A0400F4
:1001500001010203010001C1120180360181360054
:1001600011241FBECFEFDAE0DEBFCDBF11E0A0E06B
:10017000B1E0E2EEF8E002C005900D92A830B107C0
:10018000D9F721E0A8E0B1E001C01D92AF30B2077D
:10019000E1F70E94F1000C946F040C940000CF93DF
:1001A000DF93EA01AB01BC0180E094E00E94CE0243
:1001B000CD2B11F4289A01C02898DF91CF91089592
:1001C000CF93DF93EA01AB01BC0180E094E00E9491
:1001D0001003CD2B11F4289A01C02898DF91CF91FC
:1001E0000895E1E6F0E080E880831082229A2A9A5E
:1001F000219A229A40E050E06AE979E989E99EE390
:100200000E94CF0040E050E06AE979E989E99EE385
:100210000E94E000FFCF1F920F920FB60F921124A1
:100220008F939F93EF93FF93E1EEF0E08081108234
:1002300083FF11C01092E90091E09093EB001092BF
:10024000EC0092E19093ED0098E09093F000109212
:100250000A011092080182FF13C080910A018823CD
:1002600079F080910901882359F081508093090128
:10027000811106C084E08093E9008AE38093E8005E
:10028000FF91EF919F918F910F900FBE0F901F9054
:1002900018951F920F920FB60F9211240F931F9370
:1002A0002F933F934F935F936F937F938F939F937E
:1002B000AF93BF93CF93DF93EF93FF931092E90037
:1002C0008091E80083FF4EC1E1EFF0E0C081408102
:1002D0002081808130E0382B8081508190E0BC010A
:1002E000752BB081A08182EF8093E800463009F041
:1002F00058C004C081E28093EB003BC1C6E08CEAA9
:1003000090E0FC01459154912417350711F00796B0
:1003100023C0FC013296459154916417750711F082
:1003200007961AC0FC01349625913491FC0136964B
:1003300054918B2F90E09A2B8F3F910519F010F07C
:100340008FEF90E0851708F4582FA8EEB0E070E129
:100350006EEFC1EFD0E003C0C15099F6CBCF8C91C6
:10036000982F9570E1F382FD04C1452F513108F0BB
:10037000472F442309F4FAC0F901842F94919883FC
:10038000815031968111FACF8FEF840F90E0019662
:10039000280F391F541B6C935111E1CF4031F9F2F2
:1003A000E8C0453061F48EEF8093E800E8EEF0E0BD
:1003B000808180FFFDCF20682093E300DAC04930C0
:1003C00009F036C0C1115FC020930A0110920801E4
:1003D000109209018EEF8093E80011E085E591E02D
:1003E000C9EED0E0ABEEB0E06CEE70E04DEE50E068
:1003F00018839C012F5F3F4FFC0104910C93002355
:1004000061F0F9012491FB0120839C012D5F3F4F96
:10041000FC0132968491FA0180831F5F153011F040
:10042000C901E6CFEAEEF0E08EE180831082A1C040
:10043000483081F4C03809F042C0E8EEF0E0808135
:1004400080FFFDCF80910A018093F1008EEF8093B1
:10045000E8008FC04132B9F4C13A09F040C0E8EE7B
:10046000F0E0808180FFFDCFE0E0F1E087E091E007
:10047000A1EFB0E021912C93E817F907D9F78EEF9F
:100480008093E80076C04032D1F4C13209F043C015
:10049000E8EEF0E0808182FFFDCFE0E0F1E087E070
:1004A00091E0A1EFB0E02C912193E817F907D9F77B
:1004B000E8EEF0E08BEF80838EEF80835AC042320B
:1004C00071F4C13209F04EC020930801E8EEF0E06B
:1004D000808180FFFDCF8EEF8093E8004AC04111FC
:1004E0001AC0E8EEF0E0808180FFFDCFC23851F401
:1004F000E9EEF0E060838091EB0085FB882780F9CE
:10050000108201C080E0E1EFF0E0808310828EEF86
:100510008093E8002EC0842F8D7F813019F5C23082
:1005200009F5232BF9F46F778FEF860F8430D0F421
:100530008EEF8093E8006093E900433021F481E27C
:100540008093EB0016C089E18093EB0081E090E09E
:1005500002C0880F991F6A95E2F7EAEEF0E0808307
:10056000108207C081E28093EB0003C06C935111AD
:10057000F6CEFF91EF91DF91CF91BF91AF919F9117
:100580008F917F916F915F914F913F912F911F912B
:100590000F910F900FBE0F901F901895CF92DF9282
:1005A000EF92FF926A017B0190930C0180930B0103
:1005B0009093890080938800BC0180E090E00E94C5
:1005C0007E03A70196010E940C040E9452037093BF
:1005D0008B0060938A00E1E8F0E080818061808395
:1005E000808188608083A0E8B0E08C9182608C93E9
:1005F0008C9181608C938C9180628C938C918F7E96
:100600008C9380818B7F80838081826080838081D6
:100610008E7F8083269AFF90EF90DF90CF90089591
:10062000CF92DF92EF92FF926A017B0190930E01CD
:1006300080930D019093970080939600BC0180E019
:1006400090E00E947E03A70196010E940C040E9484
:1006500052037093990060939800E1E9F0E0808183
:1006600080618083808188608083A0E9B0E08C9184
:1006700082608C938C918E7F8C938C9180688C930C
:100680008C918F7B8C9380818B7F80838081826033
:10069000808380818E7F80833E9AFF90EF90DF90F1
:1006A000CF90089598D088F09F5790F0B92F992750
:1006B000B751A0F0D1F0660F771F881F991F1AF06D
:1006C000BA95C9F712C0B13081F09FD0B1E008955A
:1006D0009CC0672F782F8827B85F39F0B93FCCF3DB
:1006E000869577956795B395D9F73EF49095809563
:1006F000709561957F4F8F4F9F4F0895E89409C083
:1007000097FB3EF490958095709561957F4F8F4F44
:100710009F4F9923A9F0F92F96E9BB279395F6955A
:10072000879577956795B795F111F8CFFAF4BB0FD8
:1007300011F460FF1BC06F5F7F4F8F4F9F4F16C03C
:10074000882311F096E911C0772321F09EE8872FC6
:10075000762F05C0662371F096E8862F70E060E082
:100760002AF09A95660F771F881FDAF7880F9695FB
:10077000879597F9089597F99F6780E870E060E0A2
:1007800008959FEF80EC089500240A94161617062A
:1007900018060906089500240A9412161306140672
:1007A00005060895092E0394000C11F4882352F0D5
:1007B000BB0F40F4BF2B11F460FF04C06F5F7F4F8D
:1007C0008F4F9F4F089557FD9058440F551F59F074
:1007D0005F3F71F04795880F97FB991F61F09F3F2E
:1007E00079F087950895121613061406551FF2CF57
:1007F0004695F1DF08C0161617061806991FF1CFA7
:1008000086957105610508940895E894BB276627CD
:100810007727CB0197F908950BD0C4CFB5DF28F027
:10082000BADF18F0952309F0A6CFABCF1124EECF95
:10083000CADFA0F3959FD1F3950F50E0551F629F3B
:10084000F001729FBB27F00DB11D639FAA27F00D29
:10085000B11DAA1F649F6627B00DA11D661F829F50
:100860002227B00DA11D621F739FB00DA11D621F35
:10087000839FA00D611D221F749F3327A00D611D52
:10088000231F849F600D211D822F762F6A2F112434
:100890009F5750408AF0E1F088234AF0EE0FFF1F87
:1008A000BB1F661F771F881F91505040A9F79E3FBE
:1008B000510570F060CFAACF5F3FECF3983EDCF3B8
:1008C000869577956795B795F795E7959F5FC1F7FB
:1008D000FE2B880F911D9695879597F90895F894AA
:0208E000FFCF48
:0808E20000E100000000080025
:00000001FF
